:100000000C942A000C9447000C9447000C94470071
:100010000C9447000C9447000C9447000C94470044
:100020000C9447000C9447000C9447000C94470034
:100030000C9447000C9447000C9447000C94470024
:100040000C9447000C9447000C9447000C94470014
:100050000C94470011241FBECFE5D8E0DEBFCDBF12
:1000600010E0A0E6B0E0E2EEF8E202C005900D92EA
:10007000AA3CB107D9F710E0AAECB0E001C01D928C
:10008000AB3CB107E1F70E943A120C946F140C9448
:100090000000EF92FF920F931F937B018C0120E0F1
:1000A00030E040E05FE40E94F50388238CF0C80153
:1000B000B70120E030E040E05FE40E94C1010E940F
:1000C00055049B01AC01205030404040504806C0D0
:1000D000C801B7010E9455049B01AC01B901CA01D6
:1000E0001F910F91FF90EF900895A0E0B0E0EBE733
:1000F000F0E00C943814DC012B01FA019C91923051
:1001000008F439C1EB018881823008F433C194309E
:1001100069F4843009F02FC111969C91119789815F
:10012000981709F428C1A0E6B0E025C1843009F48D
:1001300021C18230A9F4923009F01DC19A01AD01AC
:1001400088E0EA010990AE01E90109929E0181501F
:10015000C1F7E201898111969C918923818308C1AD
:10016000923009F407C112962D903C901397EB0141
:100170008A819B811496AD90BD90CD90DC901797AD
:10018000EC80FD800E811F819101281B390BB90184
:1001900037FF04C066277727621B730B6032710537
:1001A0000CF061C0121613066CF537014801062EDB
:1001B00004C096948794779467940A94D2F721E0C8
:1001C00030E040E050E004C0220F331F441F551FB1
:1001D0006A95D2F721503040404050402E213F21B7
:1001E00040235123211531054105510521F021E01E
:1001F00030E040E050E079018A01E628F72808293C
:1002000019293CC0232BD1F1260E371E350146019A
:10021000062E04C096948794779467940A94D2F734
:1002200021E030E040E050E004C0220F331F441FC3
:10023000551F6A95D2F721503040404050402A2146
:100240003B214C215D21211531054105510521F04E
:1002500021E030E040E050E059016A01A628B728CB
:10026000C828D9280BC0821593052CF01C01AA249C
:10027000BB24650103C0EE24FF24870111969C91E5
:10028000D20111968C91981709F445C0992339F041
:10029000A80197012A193B094C095D0906C0A6016E
:1002A00095012E193F09400B510B57FD08C01182D3
:1002B0003382228224833583468357831DC081E0A5
:1002C00081833382228288279927DC01821B930B4A
:1002D000A40BB50B84839583A683B7830DC0220F2F
:1002E000331F441F551F24833583468357838281E0
:1002F000938101979383828324813581468157813D
:10030000DA01C9010197A109B1098F5F9F4FAF4F72
:10031000BF4328F30BC0918333822282EA0CFB1C7B
:100320000C1D1D1DE482F5820683178383E0808304
:10033000248135814681578157FF1AC0C901AA27F8
:1003400097FDA095BA2F81709070A070B0705695EF
:10035000479537952795822B932BA42BB52B848318
:100360009583A683B7838281938101969383828349
:10037000DF0101C0D201CD01CDB7DEB7E2E10C94BF
:100380005414A0E2B0E0E7ECF1E00C94441469836B
:100390007A838B839C832D833E834F835887E9E048
:1003A000EE2EF12CEC0EFD1ECE010196B7010E943F
:1003B0007E058E010F5E1F4FCE010596B8010E948B
:1003C0007E058A8991E089278A8BC701B801AE0131
:1003D000475E5F4F0E9475000E94A904A096E6E068
:1003E0000C946014A0E2B0E0E8EFF1E00C94441447
:1003F00069837A838B839C832D833E834F835887C5
:10040000F9E0EF2EF12CEC0EFD1ECE010196B701A6
:100410000E947E058E010F5E1F4FCE010596B8012A
:100420000E947E05C701B801AE01475E5F4F0E9482
:1004300075000E94A904A096E6E00C946014A0E266
:10044000B0E0E5E2F2E00C94381469837A838B83A0
:100450009C832D833E834F835887CE010196BE0136
:10046000675F7F4F0E947E05CE010596BE016F5EDD
:100470007F4F0E947E059985923088F0898982306D
:10048000C8F0943019F4823051F404C0843029F457
:10049000923081F480E690E0C6C0923049F420E0CA
:1004A0009A858A89981321E02A87CE010996BBC0D4
:1004B000823049F420E09A858A89981321E02A8BBA
:1004C000CE014196B0C02D843E844F8458886D88FB
:1004D0007E888F88988CEE24FF248701AA24BB2471
:1004E000650140E050E060E070E0E0E0F0E0C10174
:1004F00081709070892BE9F0E60CF71C081D191D1E
:100500009A01AB012A0D3B1D4C1D5D1D80E090E062
:10051000A0E0B0E0E614F7040805190520F481E036
:1005200090E0A0E0B0E0BA01A901480F591F6A1F8E
:100530007B1FAA0CBB1CCC1CDD1C97FE08C081E0F5
:1005400090E0A0E0B0E0A82AB92ACA2ADB2A3196B6
:10055000E032F10549F0660C771C881C991C569412
:10056000479437942794C3CFFA85EA892B893C892D
:100570008B859C85280F391F2E5F3F4F17C0CA01FE
:1005800081709070892B61F016950795F794E79428
:1005900080E090E0A0E0B0E8E82AF92A0A2B1B2BC3
:1005A00076956795579547952F5F3F4F77FDE7CF36
:1005B0000CC0440F551F661F771F17FD4160EE0CDE
:1005C000FF1C001F111F21503040403090E05907A0
:1005D00090E0690790E4790760F32B8F3C8FDB0193
:1005E000CA018F779070A070B07080349105A1051A
:1005F000B10561F447FD0AC0E114F10401051105DC
:1006000029F0405C5F4F6F4F7F4F40781A8EFE1786
:1006100011F081E08A8F4D8F5E8F6F8F78A383E01A
:10062000898FCE0149960E94A904A096E2E10C941C
:100630005414A8E1B0E0EFE1F3E00C9440146983B6
:100640007A838B839C832D833E834F835887B9E0C5
:10065000EB2EF12CEC0EFD1ECE010196B7010E948F
:100660007E058E010F5E1F4FCE010596B8010E94D8
:100670007E052985223008F47EC03989323010F495
:10068000B8017CC08A859A8989278A87243011F02D
:10069000223031F4231709F06EC060E670E06EC0BE
:1006A000343039F41D861E861F86188A1C861B86E8
:1006B00004C0323021F484E08987B7015FC02B8504
:1006C0003C858B899C89281B390B3C872B87ED84C3
:1006D000FE840F851889AD88BE88CF88D88CEA142F
:1006E000FB040C051D0540F4EE0CFF1C001F111F40
:1006F000215030403C872B8720E030E040E050E044
:1007000080E090E0A0E0B0E460E070E0EA14FB0478
:100710000C051D0540F0282B392B4A2B5B2BEA18C2
:10072000FB080C091D09B695A79597958795EE0CC2
:10073000FF1C001F111F6F5F7F4F6F31710531F775
:10074000DA01C9018F779070A070B0708034910584
:10075000A105B10561F427FD0AC0E114F10401050A
:10076000110529F0205C3F4F4F4F5F4F20782D87B8
:100770003E874F87588BBE01675F7F4FCB010E943A
:10078000A9046896EAE00C945C14A8E1B0E0EBECF4
:10079000F3E00C94441469837A838B839C832D83C8
:1007A0003E834F83588789E0E82EF12CEC0EFD1E26
:1007B000CE010196B7010E947E058E010F5E1F4F8C
:1007C000CE010596B8010E947E058985823040F0F1
:1007D0008989823028F0C701B8010E94F60501C05E
:1007E0008FEF6896E6E00C946014A8E1B0E0EBEFC0
:1007F000F3E00C94441469837A838B839C832D8368
:100800003E834F83588789E0E82EF12CEC0EFD1EC5
:10081000CE010196B7010E947E058E010F5E1F4F2B
:10082000CE010596B8010E947E058985823040F090
:100830008989823028F0C701B8010E94F60501C0FD
:100840008FEF6896E6E00C946014A8E1B0E0EBE26C
:10085000F4E00C94441469837A838B839C832D8306
:100860003E834F83588789E0E82EF12CEC0EFD1E65
:10087000CE010196B7010E947E058E010F5E1F4FCB
:10088000CE010596B8010E947E058985823040F030
:100890008989823028F0C701B8010E94F60501C09D
:1008A00081E06896E6E00C946014ACE0B0E0EBE523
:1008B000F4E00C94481469837A838B839C83CE0183
:1008C0000196BE016B5F7F4F0E947E058D81823055
:1008D00061F1823050F1843021F48E81882351F10E
:1008E0002EC02F81388537FD20C06E812F31310514
:1008F0001CF06623F9F023C08EE190E0821B930B7D
:1009000029853A854B855C8504C056954795379572
:1009100027958A95D2F76623B1F05095409530958A
:1009200021953F4F4F4F5F4F0EC020E030E040E039
:1009300050E009C02FEF3FEF4FEF5FE704C020E02A
:1009400030E040E050E8B901CA012C96E2E00C9496
:100950006414DF92EF92FF920F931F93FC01E480E7
:10096000F58006811781D1808081823048F480E053
:1009700090E0A0E1B0E0E82AF92A0A2B1B2BA5C0E1
:10098000843009F49FC0823021F4EE24FF248701D3
:1009900005C0E114F1040105110519F4E0E0F0E0EF
:1009A00096C0628173819FEF623879070CF05BC05B
:1009B00022E83FEF261B370B2A3131052CF020E0CF
:1009C00030E040E050E02AC0B801A701022E04C088
:1009D00076956795579547950A94D2F781E090E010
:1009E000A0E0B0E004C0880F991FAA1FBB1F2A9582
:1009F000D2F70197A109B1098E219F21A023B1232C
:100A00000097A105B10521F081E090E0A0E0B0E001
:100A10009A01AB01282B392B4A2B5B2BDA01C90138
:100A20008F779070A070B07080349105A105B105EA
:100A300039F427FF09C0205C3F4F4F4F5F4F04C080
:100A4000215C3F4F4F4F5F4FE0E0F0E02030A0E0EF
:100A50003A07A0E04A07A0E45A0710F0E1E0F0E00E
:100A600079018A0127C06038710564F5FB01E158FE
:100A7000FF4FD801C7018F779070A070B07080349D
:100A80009105A105B10539F4E7FE0DC080E490E0C1
:100A9000A0E0B0E004C08FE390E0A0E0B0E0E80E9A
:100AA000F91E0A1F1B1F17FF05C016950795F7941F
:100AB000E794319687E016950795F794E7948A9521
:100AC000D1F705C0EE24FF248701EFEFF0E06E2F91
:100AD000679566276795902F9F77D794DD24D794E5
:100AE0008E2F8695492F462B582F5D29B701CA01B5
:100AF0001F910F91FF90EF90DF900895FC01DB01B3
:100B0000408151812281622F6F7770E0221F22275E
:100B1000221F9381892F880F822B282F30E0991F65
:100B20009927991F11969C93119721153105A9F5C5
:100B3000411551056105710511F482E037C082E865
:100B40009FEF13969C938E9312979A01AB0167E0E7
:100B5000220F331F441F551F6A95D1F783E08C93F2
:100B60000DC0220F331F441F551F12968D919C916B
:100B70001397019713969C938E931297203080E0E1
:100B8000380780E0480780E4580758F314962D93FF
:100B90003D934D935C93179708952F3F310579F45A
:100BA000411551056105710519F484E08C93089590
:100BB00064FF03C081E08C9312C01C9210C02F57B9
:100BC000304013963C932E93129783E08C9387E0EA
:100BD000440F551F661F771F8A95D1F770641496CE
:100BE0004D935D936D937C93179708951F93DC014C
:100BF000FB019C91923008F447C08081823008F458
:100C000043C0943051F411961C91843099F5818140
:100C1000682F70E0611B71093FC0843021F0923071
:100C200031F48230B9F18181882389F12DC0119688
:100C30001C9111978230F1F081811817D9F4129626
:100C40002D913C911397828193818217930794F0A1
:100C500028173907BCF014968D919D910D90BC9189
:100C6000A02D2481358146815781281739074A07ED
:100C70005B0718F4112341F00AC082179307A407F9
:100C8000B50740F4112319F061E070E005C06FEF83
:100C90007FEF02C060E070E0CB011F910895DF9309
:100CA000CF9300D000D0CDB7DEB789836A83898126
:100CB000282F30E03C832B838B819C8181309105F0
:100CC000D1F02B813C81223031052CF48B819C8129
:100CD000009761F01EC02B813C812230310581F0EC
:100CE0008B819C818330910581F013C0EBE3F0E0B0
:100CF0008A8180830EC0E8E3F0E08A81808309C0A6
:100D0000E5E3F0E08A81808304C0E2E3F0E08A81D9
:100D100080830F900F900F900F90CF91DF910895E7
:100D2000DF93CF9300D000D000D0CDB7DEB78B8358
:100D30006C838B818695869586958A838B81877057
:100D400089838A81282F30E03E832D838D819E8187
:100D50008130910509F443C02D813E812230310557
:100D60002CF48D819E81009771F0BCC02D813E8155
:100D70002230310509F45FC08D819E818330910559
:100D800009F485C0AFC08C818823A9F4ABE3B0E03F
:100D9000EBE3F0E08081482F8981282F30E081E06B
:100DA00090E0022E02C0880F991F0A94E2F7809506
:100DB00084238C9397C0ABE3B0E0EBE3F0E0808159
:100DC000482F8981282F30E081E090E0022E02C078
:100DD000880F991F0A94E2F7842B8C9383C08C812F
:100DE0008823A9F4A8E3B0E0E8E3F0E08081482F8D
:100DF0008981282F30E081E090E0022E02C0880F28
:100E0000991F0A94E2F7809584238C936BC0A8E322
:100E1000B0E0E8E3F0E08081482F8981282F30E0BE
:100E200081E090E0022E02C0880F991F0A94E2F739
:100E3000842B8C9357C08C818823A9F4A5E3B0E060
:100E4000E5E3F0E08081482F8981282F30E081E0C0
:100E500090E0022E02C0880F991F0A94E2F7809555
:100E600084238C933FC0A5E3B0E0E5E3F0E080810C
:100E7000482F8981282F30E081E090E0022E02C0C7
:100E8000880F991F0A94E2F7842B8C932BC08C81D6
:100E90008823A9F4A2E3B0E0E2E3F0E08081482FE8
:100EA0008981282F30E081E090E0022E02C0880F77
:100EB000991F0A94E2F7809584238C9313C0A2E3D0
:100EC000B0E0E2E3F0E08081482F8981282F30E014
:100ED00081E090E0022E02C0880F991F0A94E2F789
:100EE000842B8C9326960FB6F894DEBF0FBECDBF31
:100EF000CF91DF910895DF93CF9300D000D000D041
:100F0000CDB7DEB78C838C818695869586958B834D
:100F10008C8187708A838B81282F30E03E832D83DC
:100F20004D815E814130510541F18D819E8182303C
:100F3000910534F42D813E812115310561F052C0B7
:100F40004D815E814230510551F18D819E8183300A
:100F50009105B9F147C0E9E3F0E08081282F30E046
:100F60008A81882F90E0A90102C0559547958A95FE
:100F7000E2F7CA018170898335C0E6E3F0E0808141
:100F8000282F30E08A81882F90E0A90102C0559572
:100F900047958A95E2F7CA018170898323C0E3E30C
:100FA000F0E08081282F30E08A81882F90E0A9012D
:100FB00002C0559547958A95E2F7CA0181708983E9
:100FC00011C0E0E3F0E08081282F30E08A81882F93
:100FD00090E0A90102C0559547958A95E2F7CA01AC
:100FE00081708983898126960FB6F894DEBF0FBE83
:100FF000CDBFCF91DF910895DF93CF93CDB7DEB70B
:1010000027970FB6F894DEBF0FBECDBF1B82F9C085
:101010008B8187708A838B81869586958695898357
:101020008B81882F90E0880F991FFC01E659FF4FB4
:101030008081813009F06FC08981282F30E03F83A3
:101040002E838E819F818130910549F12E813F81D0
:10105000223031052CF48E819F81009761F0CEC043
:101060002E813F812230310571F18E819F81833045
:101070009105E9F1C3C0AAE3B0E0EAE3F0E08081C2
:10108000482F8A81282F30E081E090E0022E02C0B4
:10109000880F991F0A94E2F7842B8C93AFC0A7E3C3
:1010A000B0E0E7E3F0E08081482F8A81282F30E02C
:1010B00081E090E0022E02C0880F991F0A94E2F7A7
:1010C000842B8C939BC0A4E3B0E0E4E3F0E0808148
:1010D000482F8A81282F30E081E090E0022E02C064
:1010E000880F991F0A94E2F7842B8C9387C0A1E3A1
:1010F000B0E0E1E3F0E08081482F8A81282F30E0E2
:1011000081E090E0022E02C0880F991F0A94E2F756
:10111000842B8C9373C08981282F30E03D832C83EE
:101120008C819D818130910559F12C813D81223046
:1011300031052CF48C819D81009769F05FC02C8172
:101140003D812230310589F18C819D81833091056B
:1011500009F440C053C0AAE3B0E0EAE3F0E08081C4
:10116000482F8A81282F30E081E090E0022E02C0D3
:10117000880F991F0A94E2F7809584238C933EC0D0
:10118000A7E3B0E0E7E3F0E08081482F8A81282FD1
:1011900030E081E090E0022E02C0880F991F0A948F
:1011A000E2F7809584238C9329C0A4E3B0E0E4E3C4
:1011B000F0E08081482F8A81282F30E081E090E0A4
:1011C000022E02C0880F991F0A94E2F780958423AB
:1011D0008C9314C0A1E3B0E0E1E3F0E08081482FFC
:1011E0008A81282F30E081E090E0022E02C0880F33
:1011F000991F0A94E2F7809584238C938B818F5FEB
:101200008B838B81803208F403CF27960FB6F89436
:10121000DEBF0FBECDBFCF91DF910895DF93CF9397
:101220000F92CDB7DEB7898383E10E947B078823C5
:1012300051F48981882F90E0880F991F880F991F9A
:10124000809368002FC084E10E947B07882359F4B3
:101250008981882F90E0880F991F880F991F8F5FD1
:10126000809368001FC085E10E947B07882359F4A2
:101270008981882F90E0880F991F0196880F991F08
:10128000809368000FC086E10E947B07882351F499
:101290008981882F90E0880F991F880F991F8D5F93
:1012A000809368000F90CF91DF910895DF93CF93E3
:1012B0000F92CDB7DEB78FEF809368008DE060E0CE
:1012C0000E9490068EE061E00E9490068FE061E04F
:1012D0000E94900680E061E00E94900680E00E94FB
:1012E0000E098DE061E00E9490068EE060E00E94B1
:1012F00090068FE061E00E94900680E061E00E942D
:10130000900681E00E940E098DE061E00E94900647
:101310008EE061E00E9490068FE060E00E949006FF
:1013200080E061E00E94900682E00E940E098DE05C
:1013300061E00E9490068EE061E00E9490068FE0DE
:1013400061E00E94900680E060E00E94900683E0E9
:101350000E940E09809168008F3F51F080916800D3
:10136000882F90E0FC01E654FF4F8081898302C002
:101370008FEF898389810F90CF91DF910895DF935B
:10138000CF93CDB7DEB72E970FB6F894DEBF0FBE62
:10139000CDBF8AE060E00E94900680E090E0A0EA85
:1013A000B1E48B879C87AD87BE876B857C858D85F7
:1013B0009E8520E030E04AE755E40E941F02DC01F0
:1013C000CB018F839887A987BA876F8178858985B4
:1013D0009A8520E030E040E85FE30E9425048823FE
:1013E0002CF481E090E09E838D833FC06F817885EF
:1013F00089859A8520E03FEF4FE757E40E94C503B7
:1014000018164CF56B857C858D859E8520E030E037
:1014100040E251E40E941F02DC01CB01BC01CD017E
:101420000E944900DC01CB019E838D830FC080E9BF
:1014300091E09C838B838B819C810197F1F79C8346
:101440008B838D819E8101979E838D838D819E816B
:10145000009769F714C06F81788589859A850E9405
:101460004900DC01CB019E838D838D819E819A830F
:10147000898389819A810197F1F79A83898383E32C
:101480000E945A0A82E30E945A0A88E20E945A0A7B
:101490008CE00E945A0A86E00E945A0A81E00E946B
:1014A0005A0A2E960FB6F894DEBF0FBECDBFCF916D
:1014B000DF9108950F931F93DF93CF93CDB7DEB7DE
:1014C000C755D0400FB6F894DEBF0FBECDBFFE01AA
:1014D000E95AFF4F8083EBE3F0E08081982F9F7003
:1014E000FE01E95AFF4F8081807F892B982F80E091
:1014F000692F0E944F0689E060E00E9490068BE011
:1015000061E00E949006FE01ED5AFF4F80E090E0FE
:10151000A0E2B1E480839183A283B3838E01015B57
:101520001F4FFE01ED5AFF4F6081718182819381CF
:101530002BEA3AEA4AEA50E40E941F02DC01CB019E
:10154000F80180839183A283B383FE01E15BFF4FA7
:10155000608171818281938120E030E040E85FE327
:101560000E942504882334F4FE01E25BFF4F81E0F2
:101570008083E0C0FE01E15BFF4F60817181828169
:10158000938120E030E04FE753E40E94C503181632
:101590000CF0C0C0FE01ED5AFF4F60817181828165
:1015A000938120E030E04AE754E40E941903DC0113
:1015B000CB01FE01E65BFF4F80839183A283B3835F
:1015C0008E010A5B1F4FFE01E65BFF4F6081718158
:1015D0008281938120E030E04AE755E40E941F02B7
:1015E000DC01CB01F80180839183A283B383FE01E8
:1015F000EA5BFF4F608171818281938120E030E05E
:1016000040E85FE30E942504882344F4FE01EC5B7C
:10161000FF4F81E090E09183808364C0FE01EA5B2C
:10162000FF4F608171818281938120E03FEF4FE71E
:1016300057E40E94C50318160CF043C0FE01E65B98
:10164000FF4F608171818281938120E030E040E230
:1016500051E40E941F02DC01CB018E010C5B1F4F85
:10166000BC01CD010E944900DC01CB01F80191834E
:1016700080831FC0FE01EE5BFF4F80E991E0918304
:101680008083FE01EE5BFF4F808191810197F1F72E
:10169000FE01EE5BFF4F91838083DE01AC5BBF4FA9
:1016A000FE01EC5BFF4F80819181019711969C9325
:1016B0008E93FE01EC5BFF4F808191810097D1F604
:1016C00042C08E010C5B1F4FFE01EA5BFF4F608141
:1016D0007181828193810E944900DC01CB01F80174
:1016E00091838083DE01A05CBF4FFE01EC5BFF4F66
:1016F0008081918111969C938E93FE01E05CFF4F57
:10170000808191810197F1F7FE01E05CFF4F9183A9
:10171000808319C08E01025B1F4FFE01E15BFF4F0A
:1017200060817181828193810E944900DC01CB013B
:10173000F8018083FE01E25BFF4F80818FAF8FADA8
:101740008A95F1F78FAF8BE060E00E94900680E011
:1017500090E0AAEFB4E48BAF9CAFADAFBEAF6BAD82
:101760007CAD8DAD9EAD2BEA3AEA4AEA50E40E9488
:101770001F02DC01CB018FAB98AFA9AFBAAF6FA945
:1017800078AD89AD9AAD20E030E040E85FE30E949B
:10179000250488231CF481E08EAB91C06FA978AD3D
:1017A00089AD9AAD20E030E04FE753E40E94C503D5
:1017B00018160CF07BC06BAD7CAD8DAD9EAD20E0FE
:1017C00030E04AE754E40E941903DC01CB018AAB04
:1017D0009BABACABBDAB6AA97BA98CA99DA920E052
:1017E00030E04AE755E40E941F02DC01CB018EA7DE
:1017F0009FA7A8ABB9AB6EA57FA588A999A920E042
:1018000030E040E85FE30E94250488232CF481E067
:1018100090E09DA78CA73FC06EA57FA588A999A938
:1018200020E03FEF4FE757E40E94C50318164CF540
:101830006AA97BA98CA99DA920E030E040E251E48F
:101840000E941F02DC01CB01BC01CD010E944900B6
:10185000DC01CB019DA78CA70FC080E991E09BA77D
:101860008AA78AA59BA50197F1F79BA78AA78CA5B4
:101870009DA501979DA78CA78CA59DA5009769F7AD
:1018800024C06EA57FA588A999A90E944900DC0102
:10189000CB019DA78CA78CA59DA599A788A788A5F6
:1018A00099A50197F1F799A788A70FC06FA978ADFF
:1018B00089AD9AAD0E944900DC01CB018EAB8EA9A7
:1018C0008FA38FA18A95F1F78FA3EBE3F0E08081DE
:1018D000282F2F70FE01E95AFF4F8081882F90E05A
:1018E00082959295907F9827807F9827822B982FBA
:1018F00080E0692F0E944F068BE061E00E94900615
:1019000080E090E0A0E8BFE38BA39CA3ADA3BEA3BF
:101910006BA17CA18DA19EA12BEA3AEA4AEA50E490
:101920000E941F02DC01CB018F8F98A3A9A3BAA349
:101930006F8D78A189A19AA120E030E040E85FE3B3
:101940000E94250488231CF481E08E8F91C06F8D46
:1019500078A189A19AA120E030E04FE753E40E94EA
:10196000C50318160CF07BC06BA17CA18DA19EA1B4
:1019700020E030E04AE754E40E941903DC01CB0187
:101980008A8F9B8FAC8FBD8F6A8D7B8D8C8D9D8D4B
:1019900020E030E04AE755E40E941F02DC01CB0161
:1019A0008E8B9F8BA88FB98F6E897F89888D998D3B
:1019B00020E030E040E85FE30E94250488232CF417
:1019C00081E090E09D8B8C8B3FC06E897F89888DF4
:1019D000998D20E03FEF4FE757E40E94C5031816AA
:1019E0004CF56A8D7B8D8C8D9D8D20E030E040E242
:1019F00051E40E941F02DC01CB01BC01CD010E9419
:101A00004900DC01CB019D8B8C8B0FC080E991E0FC
:101A10009B8B8A8B8A899B890197F1F79B8B8A8B99
:101A20008C899D8901979D8B8C8B8C899D890097D2
:101A300069F724C06E897F89888D998D0E9449003D
:101A4000DC01CB019D8B8C8B8C899D89998B888B3C
:101A5000888999890197F1F7998B888B0FC06F8DD1
:101A600078A189A19AA10E944900DC01CB018E8F47
:101A70008E8D8F878F858A95F1F78F878BE060E059
:101A80000E94900680E090E0A0E0B0E48B879C8705
:101A9000AD87BE876B857C858D859E8520E030E097
:101AA0004AE755E40E941F02DC01CB018F8398872F
:101AB000A987BA876F81788589859A8520E030E08B
:101AC00040E85FE30E94250488232CF481E090E045
:101AD0009E838D833FC06F81788589859A8520E0BC
:101AE0003FEF4FE757E40E94C50318164CF56B858E
:101AF0007C858D859E8520E030E040E251E40E94A7
:101B00001F02DC01CB01BC01CD010E944900DC01B8
:101B1000CB019E838D830FC080E991E09C838B83F2
:101B20008B819C810197F1F79C838B838D819E81B2
:101B300001979E838D838D819E81009769F714C0E4
:101B40006F81788589859A850E944900DC01CB01E7
:101B50009E838D838D819E819A83898389819A81D9
:101B60000197F1F79A838983C95ADF4F0FB6F8942A
:101B7000DEBF0FBECDBFCF91DF911F910F910895B2
:101B80000F931F93DF93CF93CDB7DEB7C755D040E8
:101B90000FB6F894DEBF0FBECDBFFE01E95AFF4F6E
:101BA0008083EBE3F0E08081982F9F70FE01E95A7B
:101BB000FF4F8081807F892B982F80E0692F0E94C2
:101BC0004F0689E061E00E9490068BE061E00E9490
:101BD0009006FE01ED5AFF4F80E090E0A0E8BFE3E1
:101BE00080839183A283B3838E01015B1F4FFE012B
:101BF000ED5AFF4F60817181828193812BEA3AEA2D
:101C00004AEA50E40E941F02DC01CB01F801808304
:101C10009183A283B383FE01E15BFF4F60817181F9
:101C20008281938120E030E040E85FE30E94250458
:101C3000882334F4FE01E25BFF4F81E08083E0C043
:101C4000FE01E15BFF4F608171818281938120E021
:101C500030E04FE753E40E94C50318160CF0C0C0F3
:101C6000FE01ED5AFF4F608171818281938120E0F6
:101C700030E04AE754E40E941903DC01CB01FE0185
:101C8000E65BFF4F80839183A283B3838E010A5B5F
:101C90001F4FFE01E65BFF4F60817181828193815E
:101CA00020E030E04AE755E40E941F02DC01CB014E
:101CB000F80180839183A283B383FE01EA5BFF4F27
:101CC000608171818281938120E030E040E85FE3B0
:101CD0000E942504882344F4FE01EC5BFF4F81E061
:101CE00090E09183808364C0FE01EA5BFF4F6081D6
:101CF00071818281938120E03FEF4FE757E40E949A
:101D0000C50318160CF043C0FE01E65BFF4F60816F
:101D100071818281938120E030E040E251E40E94B1
:101D20001F02DC01CB018E010C5B1F4FBC01CD01FA
:101D30000E944900DC01CB01F801918380831FC020
:101D4000FE01EE5BFF4F80E991E091838083FE010D
:101D5000EE5BFF4F808191810197F1F7FE01EE5B11
:101D6000FF4F91838083DE01AC5BBF4FFE01EC5BD4
:101D7000FF4F80819181019711969C938E93FE0174
:101D8000EC5BFF4F808191810097D1F642C08E01BC
:101D90000C5B1F4FFE01EA5BFF4F60817181828106
:101DA00093810E944900DC01CB01F801918380837B
:101DB000DE01A05CBF4FFE01EC5BFF4F8081918193
:101DC00011969C938E93FE01E05CFF4F8081918180
:101DD0000197F1F7FE01E05CFF4F9183808319C00A
:101DE0008E01025B1F4FFE01E15BFF4F608171813D
:101DF000828193810E944900DC01CB01F80180833C
:101E0000FE01E25BFF4F80818FAF8FAD8A95F1F7C6
:101E10008FAF8BE060E00E94900680E090E0AAEF38
:101E2000B4E48BAF9CAFADAFBEAF6BAD7CAD8DAD51
:101E30009EAD2BEA3AEA4AEA50E40E941F02DC0116
:101E4000CB018FAB98AFA9AFBAAF6FA978AD89AD11
:101E50009AAD20E030E040E85FE30E94250488234B
:101E60001CF481E08EAB91C06FA978AD89AD9AADBD
:101E700020E030E04FE753E40E94C50318160CF051
:101E80007BC06BAD7CAD8DAD9EAD20E030E04AE710
:101E900054E40E941903DC01CB018AAB9BABACABD1
:101EA000BDAB6AA97BA98CA99DA920E030E04AE7D7
:101EB00055E40E941F02DC01CB018EA79FA7A8ABAF
:101EC000B9AB6EA57FA588A999A920E030E040E8CC
:101ED0005FE30E94250488232CF481E090E09DA715
:101EE0008CA73FC06EA57FA588A999A920E03FEFE8
:101EF0004FE757E40E94C50318164CF56AA97BA961
:101F00008CA99DA920E030E040E251E40E941F022C
:101F1000DC01CB01BC01CD010E944900DC01CB01F9
:101F20009DA78CA70FC080E991E09BA78AA78AA5EF
:101F30009BA50197F1F79BA78AA78CA59DA5019763
:101F40009DA78CA78CA59DA5009769F724C06EA5B9
:101F50007FA588A999A90E944900DC01CB019DA712
:101F60008CA78CA59DA599A788A788A599A5019759
:101F7000F1F799A788A70FC06FA978AD89AD9AAD81
:101F80000E944900DC01CB018EAB8EA98FA38FA1EB
:101F90008A95F1F78FA3EBE3F0E08081282F2F7073
:101FA000FE01E95AFF4F8081882F90E0829592953B
:101FB000907F9827807F9827822B982F80E0692F29
:101FC0000E944F068BE061E00E94900680E090E066
:101FD000A0E8BFE38BA39CA3ADA3BEA36BA17CA190
:101FE0008DA19EA12BEA3AEA4AEA50E40E941F0220
:101FF000DC01CB018F8F98A3A9A3BAA36F8D78A121
:1020000089A19AA120E030E040E85FE30E94250426
:1020100088231CF481E08E8F91C06F8D78A189A1F7
:102020009AA120E030E04FE753E40E94C503181660
:102030000CF07BC06BA17CA18DA19EA120E030E0C3
:102040004AE754E40E941903DC01CB018A8F9B8F7D
:10205000AC8FBD8F6A8D7B8D8C8D9D8D20E030E0A7
:102060004AE755E40E941F02DC01CB018E8B9F8B57
:10207000A88FB98F6E897F89888D998D20E030E097
:1020800040E85FE30E94250488232CF481E090E07F
:102090009D8B8C8B3FC06E897F89888D998D20E0C8
:1020A0003FEF4FE757E40E94C50318164CF56A8DC1
:1020B0007B8D8C8D9D8D20E030E040E251E40E94CC
:1020C0001F02DC01CB01BC01CD010E944900DC01F3
:1020D000CB019D8B8C8B0FC080E991E09B8B8A8B11
:1020E0008A899B890197F1F79B8B8A8B8C899D89C3
:1020F00001979D8B8C8B8C899D89009769F724C0F3
:102100006E897F89888D998D0E944900DC01CB0101
:102110009D8B8C8B8C899D89998B888B88899989DB
:102120000197F1F7998B888B0FC06F8D78A189A1EA
:102130009AA10E944900DC01CB018E8F8E8D8F8782
:102140008F858A95F1F78F878BE060E00E9490067B
:1021500080E090E0A0EAB1E48B879C87AD87BE87E2
:102160006B857C858D859E8520E030E04AE755E4CF
:102170000E941F02DC01CB018F839887A987BA8751
:102180006F81788589859A8520E030E040E85FE3BB
:102190000E94250488232CF481E090E09E838D83A7
:1021A0003FC06F81788589859A8520E03FEF4FE7B2
:1021B00057E40E94C50318164CF56B857C858D8508
:1021C0009E8520E030E040E251E40E941F02DC01E5
:1021D000CB01BC01CD010E944900DC01CB019E83F3
:1021E0008D830FC080E991E09C838B838B819C81E0
:1021F0000197F1F79C838B838D819E8101979E834C
:102200008D838D819E81009769F714C06F817885D9
:1022100089859A850E944900DC01CB019E838D83CC
:102220008D819E819A83898389819A810197F1F7B3
:102230009A838983C95ADF4F0FB6F894DEBF0FBE69
:10224000CDBFCF91DF911F910F910895DF93CF9371
:1022500000D000D0CDB7DEB79C838B831A82198261
:102260000FC029813A818B819C81FC01E20FF31F11
:1022700080810E94C00D89819A8101969A83898309
:1022800029813A818B819C81FC01E20FF31F8081BF
:10229000882339F70F900F900F900F90CF91DF9117
:1022A0000895DF93CF9300D000D0CDB7DEB78983F8
:1022B0006A835C834B838981882349F48A818031D6
:1022C00030F48A818F7080680E945A0A0BC089811D
:1022D000813041F48A81803128F48A818F70806C4A
:1022E0000E945A0A8B819C810E9426110F900F90A8
:1022F0000F900F90CF91DF910895DF93CF93CDB7DB
:10230000DEB72E970FB6F894DEBF0FBECDBF81E0CB
:102310000E945A0A80E090E0A0E0B0E48B879C879E
:10232000AD87BE876B857C858D859E8520E030E0FE
:102330004AE755E40E941F02DC01CB018F83988796
:10234000A987BA876F81788589859A8520E030E0F2
:1023500040E85FE30E94250488232CF481E090E0AC
:102360009E838D833FC06F81788589859A8520E023
:102370003FEF4FE757E40E94C50318164CF56B85F5
:102380007C858D859E8520E030E040E251E40E940E
:102390001F02DC01CB01BC01CD010E944900DC0120
:1023A000CB019E838D830FC080E991E09C838B835A
:1023B0008B819C810197F1F79C838B838D819E811A
:1023C00001979E838D838D819E81009769F714C04C
:1023D0006F81788589859A850E944900DC01CB014F
:1023E0009E838D838D819E819A83898389819A8141
:1023F0000197F1F79A83898380E80E945A0A2E9602
:102400000FB6F894DEBF0FBECDBFCF91DF91089518
:10241000DF93CF9300D000D0CDB7DEB78A837C8323
:102420006B838A818830F8F48A81882F90E008963F
:10243000880F991F880F991F880F991F0E945A0AA9
:1024400019820EC08981282F30E08B819C81FC018C
:10245000E20FF31F80810E94C00D89818F5F898305
:102460008981883078F30F900F900F900F90CF9163
:10247000DF910895DF93CF93CDB7DEB7E8970FB61E
:10248000F894DEBF0FBECDBF0E94FC0782E068E774
:102490000E944F060E94BF090E947D110E945609AA
:1024A0008093CA0080E090E0A0E2B1E48DAB9EABE7
:1024B000AFABB8AF6DA97EA98FA998AD20E030E091
:1024C0004AE755E40E941F02DC01CB0189AB9AABBD
:1024D000ABABBCAB69A97AA98BA99CA920E030E081
:1024E00040E85FE30E94250488232CF481E090E01B
:1024F00098AB8FA73FC069A97AA98BA99CA920E0B6
:102500003FEF4FE757E40E94C50318164CF56DA93D
:102510007EA98FA998AD20E030E040E251E40E940E
:102520001F02DC01CB01BC01CD010E944900DC018E
:10253000CB0198AB8FA70FC080E991E09EA78DA734
:102540008DA59EA50197F1F79EA78DA78FA598A9A8
:10255000019798AB8FA78FA598A9009769F714C02A
:1025600069A97AA98BA99CA90E944900DC01CB0129
:1025700098AB8FA78FA598A99CA78BA78BA59CA587
:102580000197F1F79CA78BA78091CA008F3F09F4B0
:10259000F0C08091CA000E94C00D8FEF8093CA00E6
:1025A00080E090E0A8ECB2E48FA398A7A9A7BAA70F
:1025B0006FA178A589A59AA520E030E04AE755E407
:1025C0000E941F02DC01CB018BA39CA3ADA3BEA381
:1025D0006BA17CA18DA19EA120E030E040E85FE3EB
:1025E0000E94250488232CF481E090E09AA389A31B
:1025F0003FC06BA17CA18DA19EA120E03FEF4FE7E2
:1026000057E40E94C50318164CF56FA178A589A55B
:102610009AA520E030E040E251E40E941F02DC0174
:10262000CB01BC01CD010E944900DC01CB019AA382
:1026300089A30FC080E991E098A38F8F8F8D98A117
:102640000197F1F798A38F8F89A19AA101979AA377
:1026500089A389A19AA1009769F714C06BA17CA1F5
:102660008DA19EA10E944900DC01CB019AA389A300
:1026700089A19AA19E8F8D8F8D8D9E8D0197F1F7E7
:102680009E8F8D8F82E161E00E94900680E090E055
:10269000AAE7B4E4898F9A8FAB8FBC8F698D7A8D4E
:1026A0008B8D9C8D20E030E04AE755E40E941F02AC
:1026B000DC01CB018D8B9E8BAF8BB88F6D897E89B2
:1026C0008F89988D20E030E040E85FE30E94250488
:1026D00088232CF481E090E09C8B8B8B3FC06D892C
:1026E0007E898F89988D20E03FEF4FE757E40E9465
:1026F000C50318164CF5698D7A8D8B8D9C8D20E065
:1027000030E040E251E40E941F02DC01CB01BC0139
:10271000CD010E944900DC01CB019C8B8B8B0FC04B
:1027200080E991E09A8B898B89899A890197F1F7E1
:102730009A8B898B8B899C8901979C8B8B8B8B893E
:102740009C89009769F7AACE6D897E898F89988DBB
:102750000E944900DC01CB019C8B8B8B8B899C896F
:10276000988B8F878F8598890197F1F7988B8F8742
:1027700095CE80916900803908F490CE80E88093EE
:10278000690082E160E00E94900680E090E0A8ECA1
:10279000B2E48B879C87AD87BE876B857C858D85F2
:1027A0009E8520E030E04AE755E40E941F02DC01EC
:1027B000CB018F839887A987BA876F8178858985B0
:1027C0009A8520E030E040E85FE30E9425048823FA
:1027D0002CF481E090E09E838D833FC06F817885EB
:1027E00089859A8520E03FEF4FE757E40E94C503B3
:1027F00018164CF56B857C858D859E8520E030E034
:1028000040E251E40E941F02DC01CB01BC01CD017A
:102810000E944900DC01CB019E838D830FC080E9BB
:1028200091E09C838B838B819C810197F1F79C8342
:102830008B838D819E8101979E838D838D819E8167
:10284000009769F72BCE6F81788589859A850E94DC
:102850004900DC01CB019E838D838D819E819A830B
:10286000898389819A810197F1F79A83898316CEAA
:102870002F923F924F925F926F927F928F929F9290
:10288000AF92BF92CF92DF92EF92FF920F931F937E
:10289000CF93DF93CDB7DEB7CA1BDB0B0FB6F8942F
:1028A000DEBF0FBECDBF09942A88398848885F846F
:1028B0006E847D848C849B84AA84B984C884DF80E0
:1028C000EE80FD800C811B81AA81B981CE0FD11DC4
:1028D0000FB6F894DEBF0FBECDBFED010895F8949A
:0228E000FFCF28
:1028E2000000000000000000FF8001000100010064
:1028F20001000100010001000100010001000100CE
:1029020001000100010001000100010001000100BD
:1029120000000000000000000100010001000100B1
:10292200010001000100010001000213021402155E
:102932000216010D010E010F000031323341343510
:0A2942003642373839432A30234467
:00000001FF
