S014000052544F535F504F5254494E472E7372656346
S11300000C942A000C9447000C9447000C9447006D
S11300100C9447000C9447000C9447000C9438034C
S11300200C9447000C9447000C9447000C94470030
S11300300C9447000C9447000C9447000C94470020
S11300400C9447000C9447000C9447000C94470010
S11300500C94470011241FBECFE5D8E0DEBFCDBF0E
S113006010E0A0E6B0E0E2E9FDE002C005900D92E8
S1130070A637B107D9F726E0A6E7B0E001C01D9284
S1130080A83BB207E1F70E94BE010C94C7060C948A
S113009000000F931F93CF93DF93EC010E940D0593
S11300A08091760081111DC0EBE7F0E080E890E0DC
S11300B09183808313821282E7E7F0E08BED95E071
S11300C09383828311821082AFE7B0E014969C93ED
S11300D08E9313971296FC93EE93119781E080937D
S11300E07600209709F45FC09E012C5F3F4F239652
S11300F0CA3DD54008F05AC0E0917B00F0917C00E5
S1130100ABE7B0E002C0DF01FC018281938182177A
S1130110930720F4808191810097A9F7C0E0E73725
S1130120FC0709F446C0CD91DC9111978E010C5F58
S11301301F4F808191818D939C9382819381821B37
S1130140930B8930910510F1BF01620F731FDB011E
S113015013969C938E9312973383228312964D9118
S11301605C9113978BE790E001C0CD01EC01A8816D
S1130170B98112962D913C91139724173507A8F352
S1130180EB01B983A883DC016D937C9380916000BB
S11301909091610022813381821B930B90936100C3
S11301A08093600008C000E010E005C000E010E0AB
S11301B002C000E010E00E94CE05C801DF91CF919B
S11301C01F910F9108950F931F93CF93DF9300977F
S11301D041F1EC018C01045011090E940D05F80154
S11301E042815381ABE7B0E001C0DF01ED91FC91A6
S11301F011972281338124173507B8F32497F983A3
S1130200E8830D931C9320916000309161008A81F2
S11302109B81820F931F90936100809360000E94E2
S1130220CE05DF91CF911F910F910895FC010396A4
S1130230928381832FEF3FEF3483238396838583D7
S11302409087878310820895FC0111861086089593
S1130250CF93DF939C01FB01DC011196CD91DC91DE
S11302601297D383C2838C819D81958384838C81EF
S11302709D81DC0113967C936E9312977D836C832E
S113028031872087F90180818F5F8083DF91CF914F
S11302900895CF93DF93EB01488159814F3F2FEFAE
S11302A0520721F4FC01A781B0850DC0DC0113962F
S11302B001C0DF011296ED91FC91139720813181E9
S11302C042175307B0F71296ED91FC911397FB83F5
S11302D0EA83D583C483BD83AC831396DC93CE9326
S11302E0129799878887FC0120812F5F2083DF91F3
S11302F0CF910895CF93DF93FC01A085B185C2818E
S1130300D381848195819D838C83C481D5818281AD
S113031093819B838A8311968D919C911297E81700
S1130320F90731F48481958112969C938E931197E9
S1130330118610868C9181508C938C91DF91CF9192
S11303400895A29AC4E085B38C2785BB88EC90E01D
S11303500E944D06F8CFA79A85B3805885BB84E6E2
S113036090E00E944D06F8CF8B9AC8E082B38C27A8
S113037082BB82E390E00E944D06F8CFE12CF12C81
S113038003E020E030E04CE251E062E670E081EA14
S113039091E00E94D60320E030E04CE251E062E6B6
S11303A070E08BEA91E00E94D60320E030E04CE25A
S11303B051E062E670E084EB91E00E94D6030E9473
S11303C0E304FFCF31E1FC013083319722E2208343
S11303D03197A3E3A083319760833197708331977A
S11303E01082319760E8608331971082319762E020
S11303F06083319763E06083319764E06083319771
S113040065E06083319766E06083319767E06083DD
S1130410319768E06083319769E06083319760E1E8
S1130420608331973083319732E13083319733E100
S11304303083319734E13083319735E1308331971C
S113044036E13083319737E13083319738E13083B7
S1130450319739E13083319730E23083319731E29B
S1130460308331972083319723E22083319740836F
S113047031975083319726E22083319727E22083F6
S1130480319728E22083319729E22083319720E3B2
S11304902083319721E32083869708951BBC8CE742
S11304A08ABD8BE08EBD89B7806189BFA091B606F5
S11304B0B091B706CD91CDBFDD91DEBFFF91EF9135
S11304C0DF91CF91BF91AF919F918F917F916F9168
S11304D05F914F913F912F911F910F91FF90EF905A
S11304E0DF90CF90BF90AF909F908F907F906F9050
S11304F05F904F903F902F901F900F900FBE0F90E2
S1130500089581E008950F920FB6F8940F921F9208
S113051011242F923F924F925F926F927F928F920B
S11305209F92AF92BF92CF92DF92EF92FF920F937E
S11305301F932F933F934F935F936F937F938F9367
S11305409F93AF93BF93CF93DF93EF93FF93A091C8
S1130550B606B091B7060DB60D920EB60D920E9476
S11305606106A091B606B091B706CD91CDBFDD91DD
S1130570DEBFFF91EF91DF91CF91BF91AF919F913A
S11305808F917F916F915F914F913F912F911F9127
S11305900F91FF90EF90DF90CF90BF90AF909F901E
S11305A08F907F906F905F904F903F902F901F900F
S11305B00F900FBE0F9008950F920FB6F8940F92FC
S11305C01F9211242F923F924F925F926F927F92CB
S11305D08F929F92AF92BF92CF92DF92EF92FF924F
S11305E00F931F932F933F934F935F936F937F9337
S11305F08F939F93AF93BF93CF93DF93EF93FF9327
S1130600A091B606B091B7060DB60D920EB60D9236
S11306100E94130581110E946106A091B606B09153
S1130620B706CD91CDBFDD91DEBFFF91EF91DF9194
S1130630CF91BF91AF919F918F917F916F915F9176
S11306404F913F912F911F910F91FF90EF90DF9069
S1130650CF90BF90AF909F908F907F906F905F905E
S11306604F903F902F901F900F900FBE0F900895C2
S11306700E94DC021895E0917E06F0917F0680814D
S1130680811107C08FEF9FEF90935F0680935E0602
S11306900895E0917E06F0917F060580F681E02DB5
S11306A00680F781E02D8281938190935F06809389
S11306B05E0608950AE616E00F2EF2E9EF2EF6E044
S11306C0FF2EF02D80916906882329F10FB6F89446
S11306D00F92D8011596ED91FC911697C681D7819A
S11306E0CE0102960E947A0180916806815080931F
S11306F06806809169068150809369060F900FBE49
S11307008F89988D0E94E300CE010E94E3008091BE
S113071069068111DBCFF7018081823098F20E9453
S11307208302D0CF0F931F93CF93DF93EC010091FB
S11307306606109167068091B6069091B7060296F8
S11307400E947A01C00FD11FE091B606F091B7065E
S1130750D383C283C017D10768F46091B606709141
S1130760B70680917C0690917D066E5F7F4F0E9454
S1130770490117C06091B6067091B70680917E0654
S113078090917F066E5F7F4F0E94490180915E06C3
S113079090915F06C817D90720F4D0935F06C093E1
S11307A05E06DF91CF911F910F9108954F925F9252
S11307B06F927F928F929F92AF92BF92CF92DF926D
S11307C0EF92FF920F93CF93DF934C016B015A0189
S11307D02901CA010E9449003C01892B09F4E2C0A5
S11307E086E290E00E944900EC01892B59F0788E52
S11307F06F8A81E0A81AB108A60CB71CC114D104F1
S113080029F420C0C3010E94E300CCC0D6018C911E
S1130810898F8C918823A1F0AE01465E5F4FF6016B
S11308203196B8E0CB0ED11CCF012191DA012D9382
S1130830AD01DC018C91882319F0EC15FD05A1F7BD
S113084018A201C0198E043008F003E00E8B6E016B
S1130850B2E0CB0ED11CC6010E942401CE010C963D
S11308600E942401D987C88784E090E0801B910905
S11308709D878C87DB8BCA8B19A21AA21BA21CA290
S11308801DA2A201B401C5010E94E20199838883DB
S1130890E114F10419F0F701D183C0830FB6F89481
S11308A00F92809168068F5F809368068091B606E8
S11308B09091B706892BA9F5D093B706C093B606D5
S11308C0809168068130E9F582E996E00E9416017C
S11308D08BE996E00E94160184EA96E00E941601D4
S11308E08DEA96E00E94160189E896E00E941601BE
S11308F080E896E00E94160183E796E00E941601C4
S11309008AE696E00E94160189E896E090937F06B5
S113091080937E0680E896E090937D0680937C0623
S113092010C08091640681110CC0E091B606F0916C
S1130930B70696898E89891720F0D093B706C0939D
S1130940B606809160068F5F809360068E899091D1
S11309506506981710F48093650690E09C01220FB9
S1130960331F220F331F220F331F820F931FB60131
S11309708E56994F0E9428010F900FBE80916406F5
S1130980882361F0E091B606F091B70696898E89C6
S1130990981730F40E94830281E005C081E003C00F
S11309A081E001C08FEFDF91CF910F91FF90EF9025
S11309B0DF90CF90BF90AF909F908F907F906F907B
S11309C05F904F900895EF92FF920F930F2EFCE5E6
S11309D0EF2EF6E0FF2EF02D00E020E030E045E5BC
S11309E050E060E770E08AE593E00E94D60381302E
S11309F081F4F8948FEF9FEF90935F0680935E06E7
S1130A0081E08093640610926706109266060E9445
S1130A104E020F91FF90EF90089580915B068F5FD7
S1130A2080935B060895CF92DF92EF92FF920F932B
S1130A301F93CF93DF9380915B06811199C0E0905F
S1130A406606F09067068FEFE81AF80AF0926706D8
S1130A50E0926606E114F104B9F480917E06909167
S1130A607F0620917C0630917D0630937F0620938B
S1130A707E0690937D0680937C06809161068F5F4D
S1130A80809361060E943B0380915E0690915F060D
S1130A90E816F90610F4D12C53C0D12CCC24C394FD
S1130AA0E0917E06F0917F068081811107C08FEF6F
S1130AB09FEF90935F0680935E0642C0E0917E06AE
S1130AC0F0917F060580F681E02DC681D7818A8169
S1130AD09B81E816F90628F490935F0680935E06DE
S1130AE02FC08E010E5F1F4FC8010E947A018C89AE
S1130AF09D89892B21F0CE010C960E947A018E8962
S1130B0090916506981710F48093650690E09C0117
S1130B10220F331F220F331F220F331F820F931F05
S1130B20B8018E56994F0E942801E091B606F091C3
S1130B30B7069E898689981708F4B2CFDC2CB0CF0B
S1130B40E091B606F091B706868990E0FC01EE0FBD
S1130B50FF1FEE0FFF1FEE0FFF1F8E0F9F1FFC01E5
S1130B60EE56F94F8081823048F0DD24D39406C0DC
S1130B70809163068F5F80936306D12C8091620617
S1130B80882311F0DD24D3948D2DDF91CF911F9113
S1130B900F91FF90EF90DF90CF900895DF92EF9246
S1130BA0FF920F931F93CF93DF930FB6F8940F9296
S1130BB080915B06815080935B0680915B06811176
S1130BC05FC080916806811133C05DC0D70115965E
S1130BD0ED91FC911697C681D781CE010C960E94A7
S1130BE07A018E010E5F1F4FC8010E947A018E891F
S1130BF090916506981710F48093650690E09C0127
S1130C00220F331F220F331F220F331F820F931F14
S1130C10B8018E56994F0E942801E091B606F091D2
S1130C20B7069E898689981768F0D09262060AC032
S1130C30C0E0D0E00F2EF3E7EF2EF6E0FF2EF02D0C
S1130C40DD24D394F70180818111C0CFCD2B11F025
S1130C500E943B03C0916306CC2351F0D1E00E9473
S1130C6013058111D0936206C150C9F7109263062F
S1130C7080916206882331F00E94830281E003C0E0
S1130C8080E001C080E00F900FBEDF91CF911F91F3
S1130C900F91FF90EF90DF900895CF93DF93EC01D5
S1130CA0892B51F00E940D0560E0CE010E94920351
S1130CB00E94CE05811102C00E948302DF91CF9170
S1130CC0089580915B06882321F081E08093620679
S1130CD008951092620620916506822F90E0FC012F
S1130CE0EE0FFF1FEE0FFF1FEE0FFF1FE80FF91FA0
S1130CF0EE56F94F3081311111C02150822F90E00E
S1130D00FC01EE0FFF1FEE0FFF1FEE0FFF1FE80F9A
S1130D10F91FEE56F94F3081332379F3AC01440FB8
S1130D20551F440F551F440F551F480F591FDA0113
S1130D30AE56B94F1196ED91FC9112970280F38152
S1130D40E02D1296FC93EE9311974B56594FE417EE
S1130D50F50729F442815381FD0152834183FC014B
S1130D60EE0FFF1FEE0FFF1FEE0FFF1F8E0F9F1FD3
S1130D70FC01EE56F94F0180F281E02D86819781C6
S1130D809093B7068093B606209365060895F89469
S1050D90FFCF8F
S1130D92DB054C4544305F506572696F64696300DA
S1090DA249444C45000029
S9030000FC
