:100000000C942A000C943F000C943F000C943F0089
:100010000C943F000C943F000C943F000C943F0064
:100020000C943F000C943F000C943F000C943F0054
:100030000C943F000C943F000C943F000C943F0044
:100040000C943F000C943F000C943F000C943F0034
:100050000C943F0011241FBECFE5D8E0DEBFCDBF1A
:1000600010E0A0E6B0E0E8E8F4E002C005900D92F0
:10007000A83BB107D9F70E9419020C9442020C94D4
:100080000000813041F028F0823039F0833039F0BF
:1000900008956BBB089568BB089565BB089562BB66
:1000A0000895982F9770869586958695813021F1D1
:1000B00030F08230F1F1833009F458C008956111B5
:1000C0000EC04BB321E030E0B90102C0660F771FCC
:1000D0009A95E2F7CB01809584238BBB08954BB3AF
:1000E00021E030E0B90102C0660F771F9A95E2F770
:1000F000CB01842B8BBB089561110EC048B321E066
:1001000030E0B90102C0660F771F9A95E2F7CB0184
:100110008095842388BB089548B321E030E0B9017D
:1001200002C0660F771F9A95E2F7CB01842B88BB3C
:10013000089561110EC045B321E030E0B90102C05D
:10014000660F771F9A95E2F7CB018095842385BBD4
:10015000089545B321E030E0B90102C0660F771F72
:100160009A95E2F7CB01842B85BB089561110EC0EF
:1001700042B321E030E0B90102C0660F771F9A95C3
:10018000E2F7CB018095842382BB089542B321E03E
:1001900030E0B90102C0660F771F9A95E2F7CB01F4
:1001A000842B82BB0895E8E6F0E080E041E050E077
:1001B000382F3770982F96959695969520812130F7
:1001C000A1F5913089F028F09230C9F0933011F107
:1001D00063C09AB3BA0102C0660F771F3A95E2F77F
:1001E0009B01292B2ABB58C097B3BA0102C0660FE6
:1001F000771F3A95E2F79B01292B27BB4DC094B39B
:10020000BA0102C0660F771F3A95E2F79B01292BCE
:1002100024BB42C091B3BA0102C0660F771F3A9562
:10022000E2F79B01292B21BB37C0913091F028F0D8
:100230009230D9F0933029F12FC02AB3BA0102C00D
:10024000660F771F3A95E2F7962F909592239ABB07
:1002500023C027B3BA0102C0660F771F3A95E2F7B1
:10026000962F9095922397BB17C024B3BA0102C072
:10027000660F771F3A95E2F7962F9095922394BBDD
:100280000BC021B3BA0102C0660F771F3A95E2F79F
:10029000962F9095922391BB8F5F3296803209F012
:1002A00087CF0895CF93C82F6BB36F70807F682B73
:1002B00080E00E94410060E089E00E94510061E01E
:1002C0008BE00E94510025E32A95F1F7000060E0E1
:1002D0008BE00E9451008FE39FE10197F1F700C08E
:1002E00000006BB36F7020E1C29FC0011124682B26
:1002F00080E00E94410061E08BE00E94510085E0B7
:100300008A95F1F7000060E08BE00E9451008FE3D6
:100310009FE10197F1F700C00000CF91089560E0E0
:100320008AE00E9451002FEF89EF90E02150804039
:100330009040E1F700C0000083E30E94520182E395
:100340000E94520188E20E9452018CE00E945201F8
:1003500086E00E94520181E00E9452010895CF93ED
:10036000C82F6BB36F70807F682B80E00E944100C4
:1003700061E089E00E94510061E08BE00E94510041
:1003800025E02A95F1F7000060E08BE00E94510023
:100390008FE39FE10197F1F700C000006BB36F702E
:1003A00020E1C29FC0011124682B80E00E9441001F
:1003B00061E08BE00E94510085E08A95F1F7000032
:1003C00060E08BE00E9451009FEF29EF80E09150A8
:1003D00020408040E1F700C00000CF910895CF9306
:1003E000DF93EC018881882331F021960E94AF01D0
:1003F00089918111FBCFDF91CF9108950F931F93C6
:10040000CF93DF93883080F48B01880F880F880F9B
:10041000805C0E945201E801085F1F4F89910E9491
:10042000AF01C017D107D1F7DF91CF911F910F9185
:1004300008950E94D3000E948F0180E80E9452011B
:1004400088EA90E00E94EF0180E20E94AF0160E63E
:1004500070E080E00E94FE018FE80E94520180E07F
:100460000E94AF0161E070E082E190E00E945100E3
:100470002FEF83ED90E3215080409040E1F700C0E2
:080480000000FFCFF894FFCF4C
:1004880000000A00110E0000010001000100010037
:10049800010001000100010001000100010001004C
:1004A800010001000100010001000100010001003C
:1004B800010001000100010001000100010001002C
:1004C800010001000100010057656C636F6D652034
:0804D800746F20414D495400EE
:00000001FF
