S014000052544F535F504F5254494E472E7372656346
S11300000C942A000C9447000C9447000C9447006D
S11300100C9447000C9447000C9447000C94620322
S11300200C9447000C9447000C9447000C94470030
S11300300C9447000C9447000C9447000C94470020
S11300400C9447000C9447000C9447000C94470010
S11300500C94470011241FBECFE5D8E0DEBFCDBF0E
S113006010E0A0E6B0E0E2EFF3E102C005900D92EB
S1130070A437B107D9F726E0A4E7B0E001C01D9288
S1130080AA3BB207E1F70E94E7010C94F7090C942C
S113009000000F931F93CF93DF93EC010E949F07FF
S11300A08091740081111DC0E9E7F0E08EE790E0D3
S11300B09183808313821282E5E7F0E08BED95E073
S11300C09383828311821082ADE7B0E014969C93EF
S11300D08E9313971296FC93EE93119781E080937D
S11300E07400209709F45FC09E012C5F3F4F239654
S11300F0CA3DD54008F05AC0E0917900F0917A00E9
S1130100A9E7B0E002C0DF01FC018281938182177C
S1130110930720F4808191810097A9F7C0E0E53727
S1130120FC0709F446C0CD91DC9111978E010C5F58
S11301301F4F808191818D939C9382819381821B37
S1130140930B8930910510F1BF01620F731FDB011E
S113015013969C938E9312973383228312964D9118
S11301605C91139789E790E001C0CD01EC01A8816F
S1130170B98112962D913C91139724173507A8F352
S1130180EB01B983A883DC016D937C9380916000BB
S11301909091610022813381821B930B90936100C3
S11301A08093600008C000E010E005C000E010E0AB
S11301B002C000E010E00E946008C801DF91CF9106
S11301C01F910F9108950F931F93CF93DF9300977F
S11301D041F1EC018C01045011090E949F07F801C0
S11301E042815381A9E7B0E001C0DF01ED91FC91A8
S11301F011972281338124173507B8F32497F983A3
S1130200E8830D931C9320916000309161008A81F2
S11302109B81820F931F90936100809360000E94E2
S11302206008DF91CF911F910F910895FC0103960F
S1130230928381832FEF3FEF3483238396838583D7
S11302409087878310820895FC0111861086089593
S1130250CF93DF939C01FB01DC011196CD91DC91DE
S11302601297D383C2838C819D81958384838C81EF
S11302709D81DC0113967C936E9312977D836C832E
S113028031872087F90180818F5F8083DF91CF914F
S11302900895CF93DF93EB01488159814F3F2FEFAE
S11302A0520721F4FC01A781B0850DC0DC0113962F
S11302B001C0DF011296ED91FC91139720813181E9
S11302C042175307B0F71296ED91FC911397FB83F5
S11302D0EA83D583C483BD83AC831396DC93CE9326
S11302E0129799878887FC0120812F5F2083DF91F3
S11302F0CF910895CF93DF93FC01A085B185C2818E
S1130300D381848195819D838C83C481D5818281AD
S113031093819B838A8311968D919C911297E81700
S1130320F90731F48481958112969C938E931197E9
S1130330118610868C9181508C938C91DF91CF9192
S113034008958A98829B11C08091590690915A060B
S11303508A30910529F410925A061092590605C064
S1130360019690935A068093590620E044E150E0A8
S113037069E576E08091B8069091B9060E949304ED
S113038084E690E00E94DF08DDCFCF93DF9300D0B6
S1130390CDB7DEB7A29AA79AAA98AF984FEF5FEFAE
S11303A0BE016F5F7F4F8091B8069091B9060E949D
S11303B0340589819A8106971CF4AA9AAF9802C0E1
S11303C0AF9AAA9882E390E00E94DF08E7CF40E06A
S11303D062E083E00E9466049093B9068093B806B5
S11303E0892BC9F0E12CF12C01E024E630E040EF48
S11303F050E062E670E081EA91E00E94680624E63B
S113040030E040EF50E069E670E085EC91E00E9456
S113041068060E947507FFCF31E1FC0130833197F4
S113042022E220833197A3E3A0833197608331973D
S1130430708331971082319760E86083319710821E
S1130440319762E06083319763E06083319764E0C1
S11304506083319765E06083319766E0608331970C
S113046067E06083319768E06083319769E0608377
S1130470319760E1608331973083319732E1308383
S1130480319733E13083319734E13083319735E16B
S11304903083319736E13083319737E130833197B8
S11304A038E13083319739E13083319730E230835A
S11304B0319731E2308331972083319723E22083CF
S11304C03197408331975083319726E220833197C7
S11304D027E22083319728E22083319729E2208381
S11304E0319720E32083319721E320838697089571
S11304F01BBC8CE78ABD8BE08EBD89B7806189BF48
S1130500A091B606B091B706CD91CDBFDD91DEBF07
S1130510FF91EF91DF91CF91BF91AF919F918F9117
S11305207F916F915F914F913F912F911F910F9107
S1130530FF90EF90DF90CF90BF90AF909F908F90FF
S11305407F906F905F904F903F902F901F900F90EF
S11305500FBE0F90089581E008950F920FB6F8949E
S11305600F921F9211242F923F924F925F926F929B
S11305707F928F929F92AF92BF92CF92DF92EF922F
S1130580FF920F931F932F933F934F935F936F9318
S11305907F938F939F93AF93BF93CF93DF93EF9307
S11305A0FF93A091B606B091B7060DB60D920EB6A4
S11305B00D920E94F308A091B606B091B706CD91B2
S11305C0CDBFDD91DEBFFF91EF91DF91CF91BF9160
S11305D0AF919F918F917F916F915F914F913F91D7
S11305E02F911F910F91FF90EF90DF90CF90BF90CC
S11305F0AF909F908F907F906F905F904F903F90BF
S11306002F901F900F900FBE0F9008950F920FB66A
S1130610F8940F921F9211242F923F924F925F925F
S11306206F927F928F929F92AF92BF92CF92DF92FE
S1130630EF92FF920F931F932F933F934F935F93E8
S11306406F937F938F939F93AF93BF93CF93DF93D6
S1130650EF93FF93A091B606B091B7060DB60D9235
S11306600EB60D920E94A50781110E94F308A09175
S1130670B606B091B706CD91CDBFDD91DEBFFF9137
S1130680EF91DF91CF91BF91AF919F918F917F9126
S11306906F915F914F913F912F911F910F91FF9017
S11306A0EF90DF90CF90BF90AF909F908F907F900E
S11306B06F905F904F903F902F901F900F900FBEC0
S11306C00F9008950E94060318950FB6F8940F92A0
S11306D0FC01928D0F900FBE81E0911180E008958E
S11306E00F931F93CF93DF93EC01042F1A8D4C8D3E
S11306F04423B9F1011116C050E08A819B810E9404
S1130700EE092C8D8A819B81820F911D9B838A83A4
S11307102C813D818217930720F1888199819B83E5
S11307208A831FC050E08E819F810E94EE098C8DC8
S113073090E09195819591092E813F81280F391F71
S11307403F832E83488159812417350730F42C8147
S11307503D81820F931F9F838E83023011F4111108
S113076011501F5F1A8F80E0DF91CF911F910F917D
S11307700895FC01448D4423A9F050E0268137817B
S1130780240F351F378326838481958128173907E1
S113079020F08081918197838683CB016681778164
S11307A00E94EE090895EF92FF920F931F93CF9347
S11307B08C010FB6F8940F92FC01C68D1C16ACF494
S11307C08189811106C011C0F8018189811105C098
S11307D00CC07801F1E1EF0EF11CC7010E946B0916
S11307E081110E94EA09C15079F78FEFF801868FD1
S11307F00F900FBE0FB6F8940F92C58D1C16ACF473
S11308008085811106C011C0F8018085811105C061
S11308100CC07801F8E0EF0EF11CC7010E946B09CF
S113082081110E94EA09C15079F78FEFF801858F91
S11308300F900FBECF911F910F91FF90EF900895ED
S1130840CF93DF93EC010FB6F8940F92E881F9810E
S11308508B8D2C8D90E030E0829FA001839F500D02
S1130860929F500D11244E0F5F1F5D834C831A8E8F
S1130870FB83EA830197829FA001839F500D929F7F
S1130880500D1124CF01840F951F9F838E838FEF0A
S11308908D8F8E8F61110CC08885882389F0CE01DD
S11308A008960E946B09882359F00E94AD0208C083
S11308B0CE0108960E941601CE0141960E941601AF
S11308C00F900FBE81E0DF91CF9108950F931F9396
S11308D0CF93DF93082F162F6623C1F0869FC001A4
S11308E011244F960E944900EC01009741F415C071
S11308F00B8F1C8F61E0CE010E9420040EC04F9626
S113090099838883F5CFD983C883F2CF8FE190E0B0
S11309100E944900EC01892BB1F7CE01DF91CF9100
S11309201F910F9108959F92AF92BF92CF92DF9241
S1130930EF92FF920F931F93CF93DF9300D000D0D9
S11309401F92CDB7DEB78C016B015D834C83A22E61
S1130950B12C992493947C0188E0E80EF11C0FB625
S1130960F8940F92F801928D838D981718F0F2E0A5
S1130970AF1219C04A2DB601C8010E947003F801D4
S11309809189992349F0C80141960E946B098823F3
S113099031F00E94AD0203C081110E94AD020F909C
S11309A00FBE81E050C08C819D81892B21F40F9072
S11309B00FBE80E048C0B11005C0CE0101960E9470
S11309C0B309B92C0F900FBE0E949F070FB6F8947D
S11309D00F92F801858D8F3F09F4158EF801868DED
S11309E08F3F09F4168E0F900FBEBE016C5F7F4FD0
S11309F0CE0101960E94BE0981111FC00FB6F89462
S1130A000F92F801928D0F900FBE838D98130FC033
S1130A106C817D81C7010E945909C8010E94D303DA
S1130A200E94600881119BCF0E94AD0298CFC8013B
S1130A300E94D3030E94600892CFC8010E94D3038E
S1130A400E94600880E00F900F900F900F900F901D
S1130A50DF91CF911F910F91FF90EF90DF90CF9096
S1130A60BF90AF909F9008959F92AF92BF92CF9204
S1130A70DF92EF92FF920F931F93CF93DF9300D0F7
S1130A8000D01F92CDB7DEB78C015B015D834C8330
S1130A90E12C992493946C0181E1C80ED11C0FB60A
S1130AA0F8940F92F801F28CFF20A9F0B501C80167
S1130AB00E94B903FA94F801F28E8085882339F0F4
S1130AC0C80108960E946B0981110E94AD020F9023
S1130AD00FBE81E051C08C819D81892B21F40F9040
S1130AE00FBE80E049C0E11005C0CE0101960E940E
S1130AF0B309E92C0F900FBE0E949F070FB6F8941C
S1130B000F92F801858D8F3F09F4158EF801868DBB
S1130B108F3F09F4168E0F900FBEBE016C5F7F4F9E
S1130B20CE0101960E94BE0981111AC0C8010E941B
S1130B306503882379F06C817D81C6010E9459097F
S1130B40C8010E94D3030E9460088111A8CF0E94AB
S1130B50AD02A5CFC8010E94D3030E9460089FCFB5
S1130B60C8010E94D3030E946008C8010E94650363
S1130B70882309F494CF80E00F900F900F900F908A
S1130B800F90DF91CF911F910F91FF90EF90DF9025
S1130B90CF90BF90AF909F900895E0917E06F09122
S1130BA07F068081811107C08FEF9FEF90935F06CE
S1130BB080935E060895E0917E06F0917F0605809D
S1130BC0F681E02D0680F781E02D82819381909358
S1130BD05F0680935E0608950AE616E00F2EF2E99A
S1130BE0EF2EF6E0FF2EF02D80916906882329F17F
S1130BF00FB6F8940F92D8011596ED91FC911697C3
S1130C00C681D781CE0102960E947A01809168063E
S1130C1081508093680680916906815080936906AB
S1130C200F900FBE8F89988D0E94E300CE010E9421
S1130C30E300809169068111DBCFF7018081823066
S1130C4098F20E94AD02D0CF0F931F93CF93DF93FE
S1130C50EC0100916606109167068091B6069091AA
S1130C60B70602960E947A01C00FD11FE091B60622
S1130C70F091B706D383C283C017D10768F460919B
S1130C80B6067091B70680917C0690917D066E5FE2
S1130C907F4F0E94490117C06091B6067091B70654
S1130CA080917E0690917F066E5F7F4F0E9449017E
S1130CB080915E0690915F06C817D90720F4D093FF
S1130CC05F06C0935E06DF91CF911F910F91089547
S1130CD04F925F926F927F928F929F92AF92BF9248
S1130CE0CF92DF92EF92FF920F93CF93DF934C0159
S1130CF06B015A012901CA010E9449003C01892B58
S1130D0009F4E2C086E290E00E944900EC01892BDC
S1130D1059F0788E6F8A81E0A81AB108A60CB71C26
S1130D20C114D10429F420C0C3010E94E300CCC043
S1130D30D6018C91898F8C918823A1F0AE01465EF7
S1130D405F4FF6013196B8E0CB0ED11CCF01219153
S1130D50DA012D93AD01DC018C91882319F0EC1597
S1130D60FD05A1F718A201C0198E043008F003E0B4
S1130D700E8B6E01B2E0CB0ED11CC6010E94240181
S1130D80CE010C960E942401D987C88784E090E0A4
S1130D90801B91099D878C87DB8BCA8B19A21AA2B1
S1130DA01BA21CA21DA2A201B401C5010E940C0237
S1130DB099838883E114F10419F0F701D183C08386
S1130DC00FB6F8940F92809168068F5F809368063F
S1130DD08091B6069091B706892BA9F5D093B706F2
S1130DE0C093B606809168068130E9F582E996E001
S1130DF00E9416018BE996E00E94160184EA96E0AF
S1130E000E9416018DEA96E00E94160189E896E098
S1130E100E94160180E896E00E94160183E796E09E
S1130E200E9416018AE696E00E94160189E896E07F
S1130E3090937F0680937E0680E896E090937D06EB
S1130E4080937C0610C08091640681110CC0E091EF
S1130E50B606F091B70696898E89891720F0D0934B
S1130E60B706C093B606809160068F5F80936006D4
S1130E708E8990916506981710F48093650690E02A
S1130E809C01220F331F220F331F220F331F820FA7
S1130E90931FB6018E56994F0E9428010F900FBEE2
S1130EA080916406882361F0E091B606F091B7065C
S1130EB096898E89981730F40E94AD0281E005C0AE
S1130EC081E003C081E001C08FEFDF91CF910F91EA
S1130ED0FF90EF90DF90CF90BF90AF909F908F9056
S1130EE07F906F905F904F900895EF92FF920F93D1
S1130EF00F2EFCE5EF2EF6E0FF2EF02D00E020E0B3
S1130F0030E045E550E06EE670E08CEE95E00E943E
S1130F106806813081F4F8948FEF9FEF90935F0619
S1130F2080935E0681E080936406109267061092B7
S1130F3066060E9478020F91FF90EF9008958091C9
S1130F405B068F5F80935B060895CF92DF92EF92EA
S1130F50FF920F931F93CF93DF9380915B068111D0
S1130F6099C0E0906606F09067068FEFE81AF80AD9
S1130F70F0926706E0926606E114F104B9F48091F8
S1130F807E0690917F0620917C0630917D063093F9
S1130F907F0620937E0690937D0680937C06809145
S1130FA061068F5F809361060E94CD0580915E0685
S1130FB090915F06E816F90610F4D12C53C0D12C99
S1130FC0CC24C394E0917E06F0917F068081811148
S1130FD007C08FEF9FEF90935F0680935E0642C039
S1130FE0E0917E06F0917F060580F681E02DC681B2
S1130FF0D7818A819B81E816F90628F490935F06CD
S113100080935E062FC08E010E5F1F4FC8010E94A1
S11310107A018C899D89892B21F0CE010C960E943E
S11310207A018E8990916506981710F4809365066D
S113103090E09C01220F331F220F331F220F331F16
S1131040820F931FB8018E56994F0E942801E09198
S1131050B606F091B7069E898689981708F4B2CF30
S1131060DC2CB0CFE091B606F091B706868990E00B
S1131070FC01EE0FFF1FEE0FFF1FEE0FFF1F8E0F81
S11310809F1FFC01EE56F94F8081823048F0DD2429
S1131090D39406C0809163068F5F80936306D12C3E
S11310A080916206882311F0DD24D3948D2DDF9185
S11310B0CF911F910F91FF90EF90DF90CF90089503
S11310C0DF92EF92FF920F931F93CF93DF930FB6AC
S11310D0F8940F9280915B06815080935B06809117
S11310E05B0681115FC080916806811133C05DC0C9
S11310F0D7011596ED91FC911697C681D781CE0143
S11311000C960E947A018E010E5F1F4FC8010E9447
S11311107A018E8990916506981710F4809365067C
S113112090E09C01220F331F220F331F220F331F25
S1131130820F931FB8018E56994F0E942801E091A7
S1131140B606F091B7069E898689981768F0D09202
S113115062060AC0C0E0D0E00F2EF3E7EF2EF6E0FF
S1131160FF2EF02DDD24D394F70180818111C0CFAF
S1131170CD2B11F00E94CD05C0916306CC2351F014
S1131180D1E00E94A5078111D0936206C150C9F72E
S11311901092630680916206882331F00E94AD02AA
S11311A081E003C080E001C080E00F900FBEDF91BA
S11311B0CF911F910F91FF90EF90DF900895CF93FF
S11311C0DF93EC01892B51F00E949F0760E0CE0170
S11311D00E9424060E946008811102C00E94AD0290
S11311E0DF91CF91089580915B06882321F081E0FF
S11311F08093620608951092620620916506822FFC
S113120090E0FC01EE0FFF1FEE0FFF1FEE0FFF1F1C
S1131210E80FF91FEE56F94F3081311111C02150FA
S1131220822F90E0FC01EE0FFF1FEE0FFF1FEE0F69
S1131230FF1FE80FF91FEE56F94F3081332379F37E
S1131240AC01440F551F440F551F440F551F480F41
S1131250591FDA01AE56B94F1196ED91FC911297D0
S11312600280F381E02D1296FC93EE9311974B5676
S1131270594FE417F50729F442815381FD01528344
S11312804183FC01EE0FFF1FEE0FFF1FEE0FFF1F48
S11312908E0F9F1FFC01EE56F94F0180F281E02D65
S11312A0868197819093B7068093B606209365064E
S11312B00895CF93DF93EB016091B6067091B70662
S11312C0645F7F4F0E94490161E0CE010E942406C1
S11312D0DF91CF9108950F931F93CF93DF93DC0198
S11312E01596ED91FC911697C681D7818E01045F06
S11312F01F4FC8010E947A0180915B0681111CC0B6
S11313000A501109C8010E947A018E8990916506DC
S1131310981710F48093650690E09C01220F331F08
S1131320220F331F220F331F820F931FB8018E56D3
S1131330994F0E94280105C0B80183E796E00E94F6
S11313402801E091B606F091B7069E89868989172F
S113135020F481E08093620601C080E0DF91CF91A8
S11313601F910F91089520916106FC012083209123
S11313706606309167063283218308950FB6F89488
S11313800F922091660630916706DC0111964D910B
S11313905C911297E0916106FC91FE1719F02417F5
S11313A03507A0F4241B350BFB0140815181241720
S11313B0350740F4421B530B518340830E94B30909
S11313C080E005C01182108281E001C081E00F90AD
S11313D00FBE089581E0809362060895FB01DC014D
S11313E002C001900D9241505040D8F70895F894EE
S10513F0FFCF29
S11313F2DB05636F756E7431006C656431004944BA
S10714024C45000051
S9030000FC
