S01100007363686564756C65722E7372656354
S11300000C942A000C9447000C9447000C9447006D
S11300100C9447000C9447000C9447000C94470040
S11300200C9447000C9447000C9447000C948500F2
S11300300C9447000C9447000C9447000C94470020
S11300400C9447000C9447000C9447000C94470010
S11300500C94470011241FBECFE5D8E0DEBFCDBF0E
S113006010E0A0E6B0E0E4E4F2E002C005900D92F6
S1130070A236B107D9F720E0A2E6B0E001C01D9294
S1130080AC38B207E1F70E946D000C9420010C9487
S1130090000080916100882311F0AA9A01C0AA98F7
S11300A081E090916100911180E080936100089556
S11300B080916000882311F0AF9A01C0AF9881E06D
S11300C090916000911180E080936000089583E036
S11300D083BF12BE81E089BF089584E884BB0E9477
S11300E067000E94BF004AE050E069E470E081E0EC
S11300F00E94D10048E250E068E570E082E00E948E
S1130100D10078940E94F300FDCF1F920F920FB696
S11301100F9211242F933F938F939F93EF93FF9309
S113012080916200909163000196909363008093A4
S11301306200809162009091630084369105A1F47D
S11301401092630010926200E4E6F0E02CE830E0E4
S11301508781811105C0838194810197948383836E
S11301603896E217F307A1F7FF91EF919F918F91D2
S11301703F912F910F900FBE0F901F901895E4E6BA
S1130180F0E02CE830E082E01082128211821482C6
S113019013821682158287833896E217F307A1F734
S11301A00895A4E6B0E020E030E0F90117969C91B0
S11301B01797923089F4EE0FFF1FEE0FFF1FEE0F1B
S11301C0FF1FEC59FF4F8083728361835483438301
S11301D056834583178208952F5F3F4F1896253025
S11301E0310519F70895DF92EF92FF920F931F9351
S11301F0CF93DF93C4E6D0E00F2EFCE8EF2EF0E0BF
S1130200FF2EF02DDD24D3948B819C81892B61F406
S11302108F81811109C0DF82E981FA8109958D817D
S11302209E819C838B831F822896CE15DF0561F700
S1130230DF91CF911F910F91FF90EF90DF90089580
S1070240F894FFCF5C
S10502440101B2
S9030000FC
