:100000000C942A000C9447000C9447000C94470071
:100010000C9447000C9447000C9447000C94470044
:100020000C9447000C9447000C9447000C94470034
:100030000C9447000C9447000C9447000C94470024
:100040000C9447000C9447000C9447000C94470014
:100050000C94470011241FBECFE5D4E0DEBFCDBF16
:1000600010E0A0E6B0E0E8E3F4E002C005900D92F5
:10007000A23CB107D9F710E0A2ECB0E001C01D929C
:10008000A33CB107E1F70E94F4010C941A020C940E
:100090000000813049F0813028F0823039F083301F
:1000A00041F406C06BBB089568BB089565BB089515
:1000B00062BB0895382F3770869586958695813076
:1000C00009F1813030F08230B1F1833009F064C041
:1000D0004BC0662361F42BB381E090E002C0880F2F
:1000E000991F3A95E2F7809582238BBB08952BB335
:1000F00081E090E002C0880F991F3A95E2F7282B23
:100100002BBB0895662361F428B381E090E002C020
:10011000880F991F3A95E2F78095822388BB08954E
:1001200028B381E090E002C0880F991F3A95E2F76A
:10013000282B28BB0895662361F425B381E090E065
:1001400002C0880F991F3A95E2F78095822385BBFC
:10015000089525B381E090E002C0880F991F3A9579
:10016000E2F7282B25BB0895662361F422B381E0D2
:1001700090E002C0880F991F3A95E2F7809582239C
:1001800082BB089522B381E090E002C0880F991FDE
:100190003A95E2F7282B22BB0895282F27708695E1
:1001A00086958695813049F0813028F0823039F08B
:1001B0008330B1F40DC089B303C086B301C083B3EB
:1001C00090E002C0959587952A95E2F78170089591
:1001D00080B390E002C0959587952A95E2F78170EB
:1001E0000895E1E6F0E060E041E050E0362F37703E
:1001F000962F9695969596958081813091F59130C0
:1002000091F0913030F09230C1F0933009F05DC040
:100210001EC02AB3CA0102C0880F991F3A95E2F79F
:10022000282B2ABB52C027B3CA0102C0880F991FCE
:100230003A95E2F7282B27BB48C024B3CA0102C075
:10024000880F991F3A95E2F7282B24BB3EC021B3B3
:10025000CA0102C0880F991F3A95E2F7282B21BBEB
:1002600034C0913091F0913028F09230C9F0933041
:1002700061F521C02AB3CA0102C0880F991F3A95BF
:10028000E2F7809582238ABB20C027B3CA0102C04F
:10029000880F991F3A95E2F78095822387BB15C096
:1002A00024B3CA0102C0880F991F3A95E2F78095DE
:1002B000822384BB0AC021B3CA0102C0880F991FE0
:1002C0003A95E2F78095822381BB6F5F3296603268
:1002D00009F08CCF08951F93182F83E10E94CD0061
:1002E000882339F4812F90E0880F991F880F991F78
:1002F00015C084E10E94CD00882321F4110F110F55
:100300001F5F17C085E10E94CD00882351F4812F23
:1003100090E0880F991F880F991F029680936000C4
:100320000AC086E10E94CD00882329F4110F110F25
:100330001D5F109360001F9108958DE060E00E94A2
:100340005A008EE061E00E945A008FE061E00E9456
:100350005A0080E061E00E945A0080E00E946B0138
:100360008DE061E00E945A008EE060E00E945A0039
:100370008FE061E00E945A0080E061E00E945A0034
:1003800081E00E946B018DE061E00E945A008EE0E6
:1003900061E00E945A008FE060E00E945A0080E015
:1003A00061E00E945A0082E00E946B018DE061E0F2
:1003B0000E945A008EE061E00E945A008FE061E0E6
:1003C0000E945A0080E060E00E945A0083E00E9490
:1003D0006B01E0916000EF3F11F48FEF0895F0E0C2
:1003E000EF54FF4F808108950F931F93CF93DF93B6
:1003F0000E94F10082E068E70E94490004EC19E0E5
:10040000C8EAD1E60E949D018093C200F8013197AD
:10041000F1F7803339F482E161E00E945A00CE01A5
:100420000197F1F782E160E00E945A00CE01019746
:08043000F1F7E8CFF894FFCFCB
:10043800FF010001000100010001000100010001AD
:10044800000100010001000100010001000100019C
:100458000001000100010000000000000000000190
:10046800000100010001000100010001000100017C
:10047800000213021402150216010D010E010F00ED
:10048800003132334134353642373839432A302344
:0204980044001E
:00000001FF
