:100000000C942A000C9447000C9447000C94470071
:100010000C9447000C9447000C9447000C94700318
:100020000C9447000C9447000C9447000C94470034
:100030000C9447000C9447000C9447000C94470024
:100040000C9447000C9447000C9447000C94470014
:100050000C94470011241FBECFE5D8E0DEBFCDBF12
:1000600010E0A0E6B0E0E4E3F6E102C005900D92F6
:10007000AC37B107D9F724E0ACE7B0E001C01D927E
:10008000AE3DB207E1F70E94F6010C94180B0C94F8
:1000900000000F931F93CF93DF93EC010E94C207E0
:1000A00080917C0081111DC0E1E8F0E086E890E0DD
:1000B0009183808313821282EDE7F0E087EE93E074
:1000C0009383828311821082A5E8B0E014969C93FA
:1000D0008E9313971296FC93EE93119781E0809381
:1000E0007C00209709F45FC09E012C5F3F4F239650
:1000F000C63ED34008F05AC0E0918100F0918200E2
:10010000A1E8B0E002C0DF01FC0182819381821787
:10011000930720F4808191810097A9F7C0E0ED3723
:10012000FC0709F446C0CD91DC9111978E010C5F5C
:100130001F4F808191818D939C9382819381821B3B
:10014000930B8930910510F1BF01620F731FDB0122
:1001500013969C938E9312973383228312964D911C
:100160005C91139781E890E001C0CD01EC01A8817A
:10017000B98112962D913C91139724173507A8F356
:10018000EB01B983A883DC016D937C9380916000BF
:100190009091610022813381821B930B90936100C7
:1001A0008093600008C000E010E005C000E010E0AF
:1001B00002C000E010E00E948308C801DF91CF91E7
:1001C0001F910F9108950F931F93CF93DF93009783
:1001D00041F1EC018C01045011090E94C207F801A1
:1001E00042815381A1E8B0E001C0DF01ED91FC91B3
:1001F00011972281338124173507B8F32497F983A7
:10020000E8830D931C9320916000309161008A81F6
:100210009B81820F931F90936100809360000E94E6
:100220008308DF91CF911F910F910895FC010396F0
:10023000928381832FEF3FEF3483238396838583DB
:100240009087878310820895FC0111861086089597
:10025000CF93DF939C01FB01DC011196CD91DC91E2
:100260001297D383C2838C819D81958384838C81F3
:100270009D81DC0113967C936E9312977D836C8332
:1002800031872087F90180818F5F8083DF91CF9153
:100290000895CF93DF93EB01488159814F3F2FEFB2
:1002A000520721F4FC01A781B0850DC0DC01139633
:1002B00001C0DF011296ED91FC91139720813181ED
:1002C00042175307B0F71296ED91FC911397FB83F9
:1002D000EA83D583C483BD83AC831396DC93CE932A
:1002E000129799878887FC0120812F5F2083DF91F7
:1002F000CF910895CF93DF93FC01A085B185C28192
:10030000D381848195819D838C83C481D5818281B1
:1003100093819B838A8311968D919C911297E81704
:10032000F90731F48481958112969C938E931197ED
:10033000118610868C9181508C93DF91CF91089516
:10034000CF93DF931F92CDB7DEB7B898A79A1982E3
:1003500086B381708983813099F48FE493EC01979F
:10036000F1F700C0000020E044E650E0BE016F5FFE
:100370007F4F8091DC049091DD040E94A3040CC0A7
:1003800020E044E650E0BE016F5F7F4F8091DC04C7
:100390009091DD040E94A30484E690E00E9402098B
:1003A000D7CFCF93DF931F92CDB7DEB7A79A20E0C8
:1003B00044E650E0BE016F5F7F4F8091DC04909176
:1003C000DD040E9444058981813071F485B3805831
:1003D00085BB8FE19EE40197F1F700C0000084EF38
:1003E00091E00E940209E3CFAF98E1CF40E061E0E5
:1003F00085E00E9476049093DD048093DC04E12C78
:10040000F12C01E020E030E04CE251E062E670E0E7
:1004100080EA91E00E94870620E030E04CE251E063
:100420006EE670E081ED91E00E948706A79A0E9437
:100430009807FFCF31E1FC013083319722E220831E
:100440003197A3E3A083319760833197708331970D
:100450001082319760E8608331971082319762E0B3
:100460006083319763E06083319764E06083319704
:1004700065E06083319766E06083319767E0608371
:10048000319768E06083319769E06083319760E17C
:10049000608331973083319732E13083319733E194
:1004A0003083319734E13083319735E130833197B0
:1004B00036E13083319737E13083319738E130834B
:1004C000319739E13083319730E23083319731E22F
:1004D000308331972083319723E220833197408303
:1004E00031975083319726E22083319727E220838A
:1004F000319728E22083319729E22083319720E346
:100500002083319721E32083869708951BBC8CE7D5
:100510008ABD8BE08EBD89B7806189BFA091DA0466
:10052000B091DB04CD91CDBFDD91DEBFFF91EF91A6
:10053000DF91CF91BF91AF919F918F917F916F91FB
:100540005F914F913F912F911F910F91FF90EF90ED
:10055000DF90CF90BF90AF909F908F907F906F90E3
:100560005F904F903F902F901F900F900FBE0F9075
:10057000089581E008950F920FB6F8940F921F929C
:1005800011242F923F924F925F926F927F928F929F
:100590009F92AF92BF92CF92DF92EF92FF920F9312
:1005A0001F932F933F934F935F936F937F938F93FB
:1005B0009F93AF93BF93CF93DF93EF93FF93A0915C
:1005C000DA04B091DB040DB60D920EB60D920E94C6
:1005D0005309A091DA04B091DB04CD91CDBFDD9138
:1005E000DEBFFF91EF91DF91CF91BF91AF919F91CE
:1005F0008F917F916F915F914F913F912F911F91BB
:100600000F91FF90EF90DF90CF90BF90AF909F90B1
:100610008F907F906F905F904F903F902F901F90A2
:100620000F900FBE0F9008950F920FB6F8940F928F
:100630001F9211242F923F924F925F926F927F925E
:100640008F929F92AF92BF92CF92DF92EF92FF92E2
:100650000F931F932F933F934F935F936F937F93CA
:100660008F939F93AF93BF93CF93DF93EF93FF93BA
:10067000A091DA04B091DB040DB60D920EB60D9286
:100680000E94C80781110E945309A091DA04B09119
:10069000DB04CD91CDBFDD91DEBFFF91EF91DF9106
:1006A000CF91BF91AF919F918F917F916F915F910A
:1006B0004F913F912F911F910F91FF90EF90DF90FD
:1006C000CF90BF90AF909F908F907F906F905F90F2
:1006D0004F903F902F901F900F900FBE0F90089556
:1006E0000E94140318950F931F93CF93DF93EC018F
:1006F000042F1A8D4C8D41110CC088819981892B52
:1007000009F042C08A819B810E94BD0A1B821A8225
:1007100042C0011117C050E08C819D810E940F0BD7
:100720002C8D8C819D81820F911D9D838C832A81CC
:100730003B818217930750F1888199819D838C8337
:1007400080E029C050E08E819F810E940F0B8C8D2C
:1007500090E09195819591092E813F81280F391F55
:100760003F832E83488159812417350730F42A812D
:100770003B81820F931F9F838E83023049F41123A4
:1007800049F0115080E007C080E005C080E003C060
:1007900080E001C080E01F5F1A8FDF91CF911F9131
:1007A0000F910895FC01448D4423A9F050E0268167
:1007B0003781240F351F3783268382819381281741
:1007C000390720F08081918197838683CB016681F0
:1007D00077810E940F0B0895EF92FF920F931F9362
:1007E000CF938C010FB6F8940F92FC01C68D1C16A6
:1007F000ACF48189811106C011C0F8018189811191
:1008000005C00CC07801F1E1EF0EF11CC7010E9498
:10081000CB0981110E94570AC15079F78FEFF80177
:10082000868F0F900FBE0FB6F8940F92C58D1C16D1
:10083000ACF48085811106C011C0F801808581115A
:1008400005C00CC07801F8E0EF0EF11CC7010E9452
:10085000CB0981110E94570AC15079F78FEFF80137
:10086000858F0F900FBECF911F910F91FF90EF904A
:100870000895CF93DF93EC010FB6F8940F9248815F
:1008800059812C8D30E07B8D729FC001739F900D3C
:100890001124FA01E80FF91FFB83EA831A8E5D83A6
:1008A0004C83821B930B840F951F9F838E838FEF46
:1008B0008D8F8E8F61110CC08885882389F0CE01C1
:1008C00008960E94CB09882359F00E94BB0208C0F9
:1008D000CE0108960E941601CE0141960E94160193
:1008E0000F900FBE81E0DF91CF9108950F931F937A
:1008F000CF93DF93082F162F6623C1F0869FC00188
:1009000011244F960E944900EC01009741F415C054
:100910000B8F1C8F61E0CE010E9439040EC04F96F0
:1009200099838883F5CFD983C883F2CF8FE190E094
:100930000E944900EC01892BB1F7CE01DF91CF91E4
:100940001F910F9108959F92AF92BF92CF92DF9225
:10095000EF92FF920F931F93CF93DF9300D000D0BD
:100960001F92CDB7DEB78C016B015D834C83A22E45
:10097000B12C992493947C0188E0E80EF11C0FB609
:10098000F8940F92F801928D838D981718F0F2E089
:10099000AF1219C04A2DB601C8010E947303F801B5
:1009A0009189992349F0C80141960E94CB09882377
:1009B00031F00E94BB0203C081110E94BB020F9064
:1009C0000FBE81E050C08C819D81892B21F40F9056
:1009D0000FBE80E048C0B11005C0CE0101960E9454
:1009E000130AB92C0F900FBE0E94C2070FB6F894DD
:1009F0000F92F801858D8F3F09F4158EF801868DD1
:100A00008F3F09F4168E0F900FBEBE016C5F7F4FB3
:100A1000CE0101960E941E0A81111FC00FB6F894E4
:100A20000F92F801928D0F900FBE838D98130FC017
:100A30006C817D81C7010E94B909C8010E94EC0345
:100A40000E94830881119BCF0E94BB0298CFC801EE
:100A50000E94EC030E94830892CFC8010E94EC031D
:100A60000E94830880E00F900F900F900F900F90DE
:100A7000DF91CF911F910F91FF90EF90DF90CF907A
:100A8000BF90AF909F9008958F929F92AF92BF9228
:100A9000CF92DF92EF92FF920F931F93CF93DF934A
:100AA00000D000D01F92CDB7DEB78C015B015D8313
:100AB0004C83822EE12C992493946C0181E1C80E21
:100AC000D11C0FB6F8940F92F801F28CFF2091F12F
:100AD000C680D780B501C8010E94D203811019C019
:100AE000FA94F801F28E80819181892B29F40E9479
:100AF000FD0AF80193838283F80180858823B1F091
:100B0000C80108960E94CB09882381F00E94BB028D
:100B10000DC0F801D782C6828189882339F0C801C7
:100B200041960E94CB0981110E94BB020F900FBE1B
:100B300081E064C08C819D81892B21F40F900FBED0
:100B400080E05CC0E11005C0CE0101960E94130A4E
:100B5000E92C0F900FBE0E94C2070FB6F8940F92B7
:100B6000F801858D8F3F09F4158EF801868D8F3F32
:100B700009F4168E0F900FBEBE016C5F7F4FCE0141
:100B800001960E941E0A81112BC00FB6F8940F9295
:100B9000F801828D0F900FBE81111CC08081918160
:100BA000892B49F40FB6F8940F92828193810E94A9
:100BB0005B0A0F900FBE6C817D81C6010E94B9094E
:100BC000C8010E94EC030E94830881117ACF0E9421
:100BD000BB0277CFC8010E94EC030E94830871CF4B
:100BE000C8010E94EC030E9483080FB6F8940F928C
:100BF000F801828D0F900FBE811163CF0F900F907F
:100C00000F900F900F90DF91CF911F910F91FF9058
:100C1000EF90DF90CF90BF90AF909F908F9008950E
:100C2000E0919904F0919A048081811107C08FEFBF
:100C30009FEF90937104809370040895E09199045C
:100C4000F0919A040580F681E02D0680F781E02D71
:100C50008281938190937104809370040895FF9230
:100C60000F931F93CF93DF93EC01F62E009178043E
:100C7000109179048091DA049091DB0402960E942D
:100C80007A01CF3F8FEFD80769F4FF2059F06091C8
:100C9000DA047091DB046E5F7F4F8BE794E00E9473
:100CA00028012FC0C00FD11FE091DA04F091DB04BE
:100CB000D383C283C017D10768F46091DA047091BE
:100CC000DB0480919704909198046E5F7F4F0E949F
:100CD000490117C06091DA047091DB048091990496
:100CE00090919A046E5F7F4F0E9449018091700439
:100CF00090917104C817D90720F4D0937104C09360
:100D00007004DF91CF911F910F91FF9008954F9242
:100D10005F926F927F928F929F92AF92BF92CF928B
:100D2000DF92EF92FF920F931F93CF93DF934C01CB
:100D30006B015A012901CA010E9449003C01892B1B
:100D400009F4E4C08AE290E00E944900EC01892B9A
:100D500071F0788E6F8A81E0A81AB1086A0C7B1C4A
:100D6000D6018C91898F8C91811105C018C0C30167
:100D70000E94E300CBC0AE01465E5F4FF6013196A4
:100D8000BAE0CB0ED11CCF012191DA012D93AD0138
:100D9000DC018C91882319F0CE16DF06A1F71AA288
:100DA000053008F004E00E8B0BA31CA26E01B2E02C
:100DB000CB0ED11CC6010E942401CE010C960E94CC
:100DC0002401D987C88785E090E0801B91099D8721
:100DD0008C87DB8BCA8B1DA21EA21FA218A619A688
:100DE000A201B401C3010E941A0299838883E1140D
:100DF000F10419F0F701D183C0830FB6F8940F9274
:100E000080917A048F5F80937A048091DA049091C4
:100E1000DB04892BD1F5D093DB04C093DA048091F5
:100E20007A04813009F041C00DEA14E00F2EFAED8A
:100E3000EF2EF4E0FF2EF02DC8010E941601075F8F
:100E40001F4F0E151F05C1F784EA94E00E9416019A
:100E50008BE994E00E9416018EE894E00E9416014E
:100E600085E894E00E9416018BE794E00E94160149
:100E700084EA94E090939A04809399048BE994E037
:100E8000909398048093970410C080917604811108
:100E90000CC0E091DA04F091DB0496898E89891701
:100EA00020F0D093DB04C093DA04809172048F5F4A
:100EB000809372048E8990917704981710F4809330
:100EC000770490E09C01220F331F220F331F220F63
:100ED000331F820F931FB60183559B4F0E94280139
:100EE0000F900FBE80917604882361F0E091DA04C0
:100EF000F091DB0496898E89981730F40E94BB022A
:100F000081E005C081E003C081E001C08FEFDF9187
:100F1000CF911F910F91FF90EF90DF90CF90BF90F6
:100F2000AF909F908F907F906F905F904F900895BB
:100F3000EF92FF920F930F2EFEE6EF2EF4E0FF2EBE
:100F4000F02D00E020E030E044E650E067E770E09C
:100F500086E199E00E948706813081F4F8948FEF52
:100F60009FEF909371048093700481E080937604E6
:100F700010927904109278040E9486020F91FF90DB
:100F8000EF90089580916D048F5F80936D040895B4
:100F9000CF92DF92EF92FF920F931F93CF93DF9345
:100FA00080916D04811199C0E0907804F0907904EB
:100FB0008FEFE81AF80AF0927904E0927804E114CD
:100FC000F104B9F48091990490919A0420919704C6
:100FD0003091980430939A04209399049093980444
:100FE00080939704809173048F5F809373040E94B1
:100FF00010068091700490917104E816F90610F4BF
:10100000D12C53C0D12CCC24C394E0919904F091FD
:101010009A048081811107C08FEF9FEF9093710434
:101020008093700442C0E0919904F0919A04058085
:10103000F681E02DC681D7818A819B81E816F90669
:1010400028F490937104809370042FC08E010E5F7A
:101050001F4FC8010E947A018C899D89892B21F03C
:10106000CE010C960E947A018E8990917704981790
:1010700010F48093770490E09C01220F331F220F1D
:10108000331F220F331F820F931FB80183559B4FCD
:101090000E942801E091DA04F091DB049E898689A0
:1010A000981708F4B2CFDC2CB0CFE091DA04F091BD
:1010B000DB04868990E0FC01EE0FFF1FEE0FFF1F9F
:1010C000EE0FFF1F8E0F9F1FFC01E355FB4F80812A
:1010D000823048F0DD24D39406C0809175048F5F80
:1010E00080937504D12C80917404882311F0DD2441
:1010F000D3948D2DDF91CF911F910F91FF90EF90A1
:10110000DF90CF900895DF92EF92FF920F931F939D
:10111000CF93DF930FB6F8940F9280916D048150B6
:1011200080936D0480916D0481115FC080917A0479
:10113000811133C05DC0D7011596ED91FC911697D2
:10114000C681D781CE010C960E947A018E010E5F76
:101150001F4FC8010E947A018E89909177049817D9
:1011600010F48093770490E09C01220F331F220F2C
:10117000331F220F331F820F931FB80183559B4FDC
:101180000E942801E091DA04F091DB049E898689AF
:10119000981768F0D09274040AC0C0E0D0E00F2E17
:1011A000FEE8EF2EF4E0FF2EF02DDD24D394F701BE
:1011B00080818111C0CFCD2B11F00E941006C0910B
:1011C0007504CC2351F0D1E00E94C8078111D0935F
:1011D0007404C150C9F71092750480917404882377
:1011E00031F00E94BB0281E003C080E001C080E0DA
:1011F0000F900FBEDF91CF911F910F91FF90EF9055
:10120000DF900895CF93DF93EC01892B51F00E947A
:10121000C20760E0CE010E942F060E948308811160
:1012200002C00E94BB02DF91CF91089505E814E04F
:101230000F2EFDEAEF2EF4E0FF2EF02D29C00E94C4
:10124000C207D801CC910E948308CC2309F10FB6C4
:10125000F8940F92D8011596ED91FC911697C681DE
:10126000D781CE0102960E947A0180917A04815042
:1012700080937A04809184048150809384040F9039
:101280000FBE8F89988D0E94E300CE010E94E3007B
:10129000809184048111D3CFF70180818230C0F323
:1012A0000E94BB02F5CF80916D04882321F081E07C
:1012B0008093740408951092740420917704822F0F
:1012C00090E0FC01EE0FFF1FEE0FFF1FEE0FFF1F60
:1012D000E80FF91FE355FB4F3081311111C0215048
:1012E000822F90E0FC01EE0FFF1FEE0FFF1FEE0FAD
:1012F000FF1FE80FF91FE355FB4F3081332379F3CC
:10130000AC01440F551F440F551F440F551F480F84
:10131000591FDA01A355BB4F1196ED91FC9112971D
:101320000280F381E02D1296FC93EE9311974055C5
:101330005B4FE417F50729F442815381FD01528385
:101340004183FC01EE0FFF1FEE0FFF1FEE0FFF1F8B
:101350008E0F9F1FFC01E355FB4F0180F281E02DB2
:10136000868197819093DB048093DA04209377043D
:101370000895CF93DF93EB016091DA047091DB0461
:10138000645F7F4F0E94490161E0CE010E942F06F9
:10139000DF91CF9108950F931F93CF93DF93DC01DB
:1013A0001596ED91FC911697C681D7818E01045F49
:1013B0001F4FC8010E947A0180916D0481111CC0E9
:1013C0000A501109C8010E947A018E899091770410
:1013D000981710F48093770490E09C01220F331F3C
:1013E000220F331F220F331F820F931FB801835523
:1013F0009B4F0E94280105C0B8018EE894E00E942E
:101400002801E091DA04F091DB049E89868989172E
:1014100020F481E08093740401C080E0DF91CF91DB
:101420001F910F91089520917304FC012083209156
:101430007804309179043283218308950FB6F894AB
:101440000F924091780450917904DB012D913C91E9
:101450002F3FBFEF3B0719F1E0917304DC01FC91D2
:10146000FE1739F01196ED91FC9112974E175F0718
:10147000C0F4DC011196ED91FC911297DA01AE1BDC
:10148000BF0BA217B30778F4DB01E41BF50B2E0F9B
:101490003F1F2D933C930E94130A80E005C080E01B
:1014A00003C081E001C081E00F900FBE089581E08C
:1014B0008093740408950F931F93CF93DF93FC01DF
:1014C000892B09F455C02689A091DA04B091DB0478
:1014D00056968C91281708F04BC0848595859923E2
:1014E00064F0A091DA04B091DB0456963C9185E05B
:1014F00090E0831B91099587848730E0C901880FAC
:10150000991F880F991F880F991F280F391F23557E
:101510003B4F828593858217930719F58F01EF0161
:101520002296CE010E947A01E091DA04F091DB0468
:101530008689F801868B90917704981710F4809330
:10154000770490E09C01220F331F220F331F220FDC
:10155000331F820F931FBE0183559B4F0E942801AA
:1015600007C0A091DA04B091DB0456968C91868B6B
:10157000DF91CF911F910F9108950F931F93CF93F8
:10158000DF93FC01892B79F184A1815084A3268902
:1015900093A1291751F181112AC0EF018F010E5F2C
:1015A0001F4FC8010E947A018BA18E8B25E030E08D
:1015B000281B31093D872C8790917704981710F4E8
:1015C0008093770490E09C01220F331F220F331F7A
:1015D000220F331F820F931FB80183559B4F0E9428
:1015E000280181E005C080E003C080E001C080E008
:1015F000DF91CF911F910F9108958091DA0490911E
:10160000DB04892B39F0E091DA04F091DB0484A14A
:101610008F5F84A38091DA049091DB040895FB012D
:10162000DC0102C001900D9241505040D8F708955E
:04163000F894FFCF5C
:10163400E703427574746F6E5F5461736B004C45BD
:0C164400445F5461736B0049444C450046
:00000001FF
