:100000000C942A000C9447000C9447000C94470071
:100010000C9447000C9447000C9447000C94470044
:100020000C9447000C9447000C9447000C948402F5
:100030000C9447000C9447000C9447000C94470024
:100040000C9447000C9447000C9447000C94470014
:100050000C94470011241FBECFE5D8E0DEBFCDBF12
:1000600010E0A0E6B0E0E0EEF5E002C005900D92F1
:10007000A236B107D9F710E0A2E6B0E001C01D92A8
:10008000AC38B107E1F70E9464020C94EE020C94C4
:100090000000DF93CF930F92CDB7DEB7198248C02F
:1000A0008981882F90E0880F991F880F991F880FEA
:1000B000991FFC01EC59FF4F10828981882F90E035
:1000C000880F991F880F991F880F991FFC01EB5902
:1000D000FF4F118210828981882F90E0880F991F2D
:1000E000880F991F880F991FFC01E959FF4F118252
:1000F00010828981882F90E0880F991F880F991F9F
:10010000880F991FFC01E759FF4F118210828981E6
:10011000882F90E0880F991F880F991F880F991FCB
:10012000FC01E559FF4F82E0808389818F5F8983DD
:100130008981853008F4B4CF0F90CF91DF91089575
:10014000DF93CF93CDB7DEB727970FB6F894DEBF16
:100150000FBECDBF8B837D836C835F834E831A82FA
:10016000198263C08981882F90E0880F991F880FBA
:10017000991F880F991FFC01E559FF4F808182303C
:1001800009F04DC08981882F90E0880F991F880F52
:10019000991F880F991FFC01EC59FF4F8B818083B9
:1001A0008981882F90E0880F991F880F991F880FE9
:1001B000991FFC01EB59FF4F8C819D8191838083B6
:1001C0008981882F90E0880F991F880F991F880FC9
:1001D000991FFC01E959FF4F8E819F819183808394
:1001E0008981882F90E0880F991F880F991F880FA9
:1001F000991FFC01E759FF4F8E819F819183808376
:100200008981882F90E0880F991F880F991F880F88
:10021000991FFC01E559FF4F108281E08A838A8192
:10022000882339F489818F5F89838981853008F437
:1002300099CF27960FB6F894DEBF0FBECDBFCF91F2
:10024000DF910895DF93CF9300D0CDB7DEB78A83D7
:10025000198222C08981882F90E0880F991F880F0A
:10026000991F880F991FFC01EC59FF4F90818A81DB
:10027000981779F48981882F90E0880F991F880F4B
:10028000991F880F991FFC01E559FF4F82E0808379
:1002900006C089818F5F898389818530D8F20F906C
:1002A0000F90CF91DF910895DF93CF9300D00F92FD
:1002B000CDB7DEB78A83198222C08981882F90E06A
:1002C000880F991F880F991F880F991FFC01EC59FF
:1002D000FF4F90818A81981779F48981882F90E067
:1002E000880F991F880F991F880F991FFC01E559E6
:1002F000FF4F80818B8308C089818F5F89838981CB
:100300008530D8F283E08B838B810F900F900F9014
:10031000CF91DF910895DF93CF930F92CDB7DEB7E2
:1003200019826CC08981882F90E0880F991F880FEF
:10033000991F880F991FFC01E959FF4F8081918116
:10034000009709F058C08981882F90E0880F991F85
:10035000880F991F880F991FFC01E559FF4F808175
:10036000882309F048C08981882F90E0880F991F61
:10037000880F991F880F991FFC01E559FF4F81E0F5
:1003800080838981882F90E0880F991F880F991F9B
:10039000880F991FFC01EB59FF4F0190F081E02D70
:1003A00009958981482F50E08981882F90E0880F36
:1003B000991F880F991F880F991FFC01E759FF4F5C
:1003C00020813181CA01880F991F880F991F880FDA
:1003D000991FFC01E959FF4F318320838981882FC0
:1003E00090E0880F991F880F991F880F991FFC01B3
:1003F000E559FF4F108289818F5F8983898185301C
:1004000008F490CF0F90CF91DF910895DF93CF93B1
:100410000F92CDB7DEB780916000882341F0A5E34D
:10042000B0E0E5E3F0E0808184608C9307C0A5E351
:10043000B0E0E5E3F0E080818B7F8C9380916000F9
:100440001982882311F481E0898389818093600077
:100450000F90CF91DF910895DF93CF930F92CDB797
:10046000DEB780916100882341F0A5E3B0E0E5E3C9
:10047000F0E0808180688C9307C0A5E3B0E0E5E3FD
:10048000F0E080818F778C938091610019828823BE
:1004900011F481E089838981809361000F90CF916D
:1004A000DF910895DF93CF93CDB7DEB7E3E5F0E0BA
:1004B00083E08083E2E5F0E01082E9E5F0E081E0AE
:1004C0008083CF91DF910895DF93CF93CDB7DEB7CF
:1004D000E4E3F0E084E880830E9452020E94490035
:1004E00026E032E081E0B9014AE050E00E94A0003D
:1004F0002CE232E082E0B90148E250E00E94A00024
:1005000078940E948B01FDCF1F920F920FB60F922D
:1005100011242F933F934F935F938F939F93EF9368
:10052000FF93DF93CF930F92CDB7DEB78091620038
:100530009091630001969093630080936200809194
:1005400062009091630084309105C1F510926300C0
:100550001092620030C08981882F90E0880F991F27
:10056000880F991F880F991FFC01E559FF4F808163
:100570008823F1F48981282F30E0C901880F991F61
:10058000880F991F880F991FFC01E959FF4F80813F
:100590009181AC0141505040C901880F991F880FCB
:1005A000991F880F991FFC01E959FF4F5183408320
:1005B00089818F5F89838981853068F20F90CF911F
:1005C000DF91FF91EF919F918F915F914F913F91BB
:1005D0002F910F900FBE0F901F901895F894FFCF9A
:0205E000010117
:00000001FF
